:100000000C945C040C9494040C9494040C94AE2D05
:100010000C9494040C9494040C9494040C94940400
:100020000C9494040C9494040C9467190C94231964
:100030000C94EE220C9494040C9494040C94940468
:100040000C9494040C9494040C9494040C949404D0
:100050000C9494040C944D1A0C9494040C949404F1
:100060000C9494040C9494040C9494040C949404B0
:100070000C9494040C9494040C9494040C949404A0
:100080000C9494040C9494040C9494040C94940490
:100090000C9494040C9494040C9494040C94940480
:1000A0000C9494040C9494040C94940400000000A8
:1000B0000000000000000000350214001A000800D3
:1000C00015001700E10004001600070009000A00EF
:1000D000E2001D001B0006001900050000000000E2
:1000E000E30021522C00000000000000000000008E
:1000F000000000002D00130012000C0018001C006E
:10010000330034000F000E000D000B0028003800F3
:100110003700360010001100000000002B002252B2
:10012000E4000000000000000000000000000000EB
:1001300000005000510052004F00000000001E005F
:100140001F0020002100220000000000000000002D
:10015000000000000000000000000000000000009F
:10016000000000000000000000000000000000008F
:10017000000000000000000000002700260025000D
:100180002400230000000000000000000000000028
:1001900000000000000029002A000000000000000C
:1001A000000000000000000035002F0030002F028A
:1001B0003002000050001E021F0220022102220213
:1001C000000000000000000000000000000000002F
:1001D000000000000000000000000000000000001F
:1001E000000000002E02310037022E0036023102DC
:1001F0004F002702260225022402230200000000ED
:1002000000000000000000000000000000000000EE
:100210000000000000DA0281FFD9F1DB20A4A62E45
:10022000AF00A0C0D30000A1C8D30000AED580A805
:100230001F408D142000000000000000808000009E
:100240008080C0C0CCDEDECCC0C0800000008080DA
:10025000000000000000C0F0F81C0E0703F9FCFFCE
:100260000F0703E1F1F1F1F1E103070FFFFCF903DF
:10027000070E1CF8F0C0C0E3E7CE1C3870630F1FF8
:100280003C78F0E1E30303E3E1F0783C1F0F677093
:10029000381CCEE7E3C0000101000000387860C0E0
:1002A000C0C0607F3F00003F7F60C0C0C060783842
:1002B0000000000101003E0100383C3C3C3C3C3C5D
:1002C0003C3C3C3C3C3C3C3C3C3C3C3C3C3C3C7C2E
:1002D000F8F1E20408F0001C1C1C00007F04081068
:1002E0007F007C1211127C001F2040201F000000A4
:1002F00000FFFF0000FF3E40404E4E4E4E4E4E4E21
:100300004E4E4E4E8E1E3E7E7E46467E46467E4675
:10031000467F7F0000FF000606367660E6C0C0809C
:1003200000000000000102020202020212E20212B8
:10033000E20212E202010000000000808080B9BBEE
:10034000BB8380B8808080808080808080BF8080F8
:10035000BF8080BF8000F00804E2F1F8FCFCFCFCE8
:10036000FCFCFCFCFCFCFCFCFCFCFCFCFCFCFCFCCD
:10037000FCFCFC0000FFFF0000FFFFFFFFFFFFFF92
:10038000FFFFFFFFFFFFFFFFFFFFFFFFFFFFFFFF7D
:10039000FFFFFF0000FFFF0000FFFFFFFFFFFFFF69
:1003A000FFFFFFFFFFFFFFFFFFFFFFFFFFFFFFFF5D
:1003B000FFFFFF0000FFFF0000FFFFFFFFFFFFFF49
:1003C000FFFFFFFFFFFFFFFFFFFFFFFFFFFFFFFF3D
:1003D000FFFFFF0000FFFF0000FFFFFFFFFFFFFF29
:1003E000FFFFFFFFFFFFFFFFFFFFFFFFFFFFFFFF1D
:1003F000FFFFFF0000FF7F80809F9F9F9F9F9F9F29
:100400009F9F9F9F9F9F9F9F9F9F9F9F9F9F9F9FFC
:100410009F9F9F80807F0001010101010101010177
:1004200002020202020202020203030303030303A5
:100430000304040404040404050505050506060672
:100440000606070707070708080808090909090A2F
:100450000A0A0B0B0B0C0C0C0D0D0D0E0E0E0F0FD4
:100460000F10101111111212131314141515161662
:100470001717181819191A1A1B1B1C1D1D1E1E1FD1
:100480002020212222232424252626272829292A20
:100490002B2C2D2D2E2F3031323233343536373848
:1004A000393A3B3C3D3E3F40414243444546474844
:1004B000494A4C4D4E4F50515354555658595A5B1A
:1004C0005D5E5F616264656668696B6C6D6F7072BA
:1004D000737577787A7B7D7E8082838587888A8C26
:1004E0008E8F91939596989A9C9EA0A2A3A5A7A95A
:1004F000ABADAFB1B3B5B7BABCBEC0C2C4C6C9CB51
:10050000CDCFD1D4D6D8DBDDDFE2E4E7E9EBEEF006
:10051000F3F5F8FAFDFF00AF00AE05010906A101F1
:10052000050719E029E715002501950875018102E5
:100530009501750881010507190029FF150026FF9F
:100540000095067508810005081901290515002583
:1005500001950575019102950175039101C009028C
:100560002200010100A0FA090400000103010100BA
:10057000092111010001224400070581030800013F
:100580001201000200000008D8042DEB0001010256
:1005900000010E034C0069006C0079003500380042
:1005A000000010036C0069006C00690075006D00AC
:1005B0007300000004030904000000000000423A38
:1005C00012120E000C4447241C002424147F040043
:1005D000423F02221E000A0A7F0A0A000247422204
:1005E0001F0021150915630044443F040400221A2A
:1005F000027F12002222120A0600084742221E0031
:10060000105254301600403A023E42005E5252529E
:100610005E00042744443C00000000000000770016
:100620007700770014227F2214005F5F005F5F0075
:1006300006097F017F00006689956A00606060603E
:10064000600094A2FFA2940008047E040800102019
:100650007E201000000000000000000000000000EC
:10066000000000000000001C1C1C000000081C080A
:100670000000000008000000000000000000000072
:100680005F000000000700070000147F147F1400C3
:10069000242A7F2A12002313086462003649562058
:1006A0005000000807030000001C22410000004128
:1006B000221C00002A1C7F1C2A0008083E08080093
:1006C0000080703000000808080808000000606022
:1006D00000002010080402003E5149453E0000423F
:1006E0007F4000007249494946002141494D33008D
:1006F0001814127F10002745454539003C4A4949E6
:10070000310041211109070036494949360046495F
:1007100049291E00000014000000004034000000C1
:10072000000814224100141414141400004122146F
:1007300008000201590906003E415D594E007C1235
:1007400011127C007F49494936003E414141220057
:100750007F4141413E007F49494941007F090909E4
:1007600001003E41415173007F0808087F000041AD
:100770007F4100002040413F01007F0814224100DA
:100780007F40404040007F021C027F007F04081031
:100790007F003E4141413E007F09090906003E417C
:1007A00051215E007F091929460026494949320036
:1007B00003017F0103003F4040403F001F204020D5
:1007C0001F003F4038403F006314081463000304D7
:1007D000780403006159494D4300007F41414100C5
:1007E000020408102000004141417F000402010280
:1007F000040040404040400000030708000020542F
:10080000547840007F284444380038444444280049
:10081000384444287F0038545454180000087E0996
:1008200002001824241C78007F0804047800004487
:100830007D4000002040403D00007F102844000023
:1008400000417F4000007C04780478007C080404A8
:1008500078003844444438007C18242418001824B4
:1008600024187C007C0804040800485454542400D4
:1008700004043F4424003C4040207C001C204020D5
:100880001C003C4030403C004428102844004C9060
:1008900090907C004464544C4400000836410000B1
:1008A0000000770000000041360800000201020449
:1008B00002003C2623263C0011241FBECFEFDAE0C5
:1008C000DEBFCDBF04B603FE18C080911106909123
:1008D0001206A0911306B09114068730904BA740E2
:1008E000B04B59F410921106109212061092130692
:1008F00010921406E0E0F8E3099512E0A0E0B1E000
:10090000E0E8F5E602C005900D92A832B107D9F7EC
:1009100026E0A8E2B2E001C01D92A131B207E1F7E2
:100920000E9415230C948C320C940000482F2091C7
:1009300005049091CC0357E0291302C080E008958C
:1009400030E0529FF001539FF00D1124E353FC4F10
:100950008181681306C08081481303C0858181119D
:10096000EECF2F5F3F4F2770E7CF982F9093E9008E
:10097000891779F05091EC002091ED004091F00042
:1009800021FD0AC09F5F973089F78093E90081E0DD
:100990000895562F40E022E03091EB003E7F3093E7
:1009A000EB003091ED003D7F3093ED003091EB0096
:1009B00031603093EB005093EC002093ED004093B6
:1009C000F0002091EE0027FDDDCF80E00895E8EDF6
:1009D000F0E080818E7F80831092E2001092DA0036
:1009E0001092E100A0EEB0E08C9181608C93808148
:1009F0008F77808319BCA7EDB0E08C918E7F8C93AC
:100A000080818F7E80831092B6030895B0E0A0E0CD
:100A1000ECE0F5E00C94E82EC8EDD0E088818F7E04
:100A20008883E7EDF0E080818160808384E082BF8D
:100A300081E08093B60388818E7F888302EE10E088
:100A4000F80110821092DA0081EEC82ED12CF60146
:100A5000108288818F7788838881806888838881E5
:100A60008F7D888319BC1092CB031092C203109221
:100A7000C1031092C00390EEE92EF12CF7018081A2
:100A80008B7F808388818160888360E080E00E9422
:100A9000B504F60180818E7F8083F80180818160BA
:100AA0008083808188608083F70180818E7F80834E
:100AB000888180618883CDB7DEB7E8E00C94042F8D
:100AC0002091E4003091E50095E6A9012091EC0029
:100AD000822F817020FF06C08091E80080FF06C051
:100AE00080E008952091E80022FD1AC08091CB0398
:100AF000882389F0853089F08091EB0085FD0FC057
:100B00002091E4003091E50042175307F9F291502B
:100B1000E1F684E0089582E0089583E0089581E09D
:100B200008958091C30387FF13C08091E80082FF7E
:100B300006C08091E8008B778093E80004C0809124
:100B4000CB038111F2CF08958091CB038823D9F391
:100B50008091E80080FFF8CF8091E8008E77ECCF9D
:100B6000FC018091C9039091CA0386179707A0F0F2
:100B70006115710529F49091E8009E779093E80043
:100B800090E06115710551F4911108C08091E80061
:100B900082FF34C080E00895BC01F2CF8091CB0386
:100BA0008823C1F18530C1F18091E80083FD30C018
:100BB0008091E80082FDEACF8091E80080FFE1CFDC
:100BC0008091F3002091F200382F6115710519F022
:100BD0002830310558F091E02830310509F090E0D7
:100BE0002091E8002E772093E800CBCF819180936D
:100BF000F100615071092F5F3F4FE7CF8091CB0328
:100C0000882341F0853041F08091E80083FFBECF1A
:100C100081E0089582E0089583E00895089508959D
:100C20000895CF92DF92EF92FF922FB7F894C09081
:100C3000B203D090B303E090B403F090B5032FBF9C
:100C4000A7019601261B370B480B590BCA01B901A6
:100C5000FF90EF90DF90CF9008952FB7F8946091B8
:100C6000B2037091B3038091B4039091B5032FBF89
:100C700008958091610108958091AD03882359F012
:100C8000E091AF03F091B003309729F00190F0812B
:100C9000E02D0995089580E00895FC01680F791F03
:100CA0008FEF91E32191822728E030E087FF09C090
:100CB000880F892721503109C9F7E617F70791F7FF
:100CC0000895880FF7CFFC01EE0FFF1FE80FF91F03
:100CD000E757FC4F6183408322830895539A089518
:100CE000CF93DF9320910F063091100629503440A6
:100CF000A901460F571F4130524020F060E072E0DA
:100D0000621B730B4091070450910804FC01C90158
:100D1000620F731FC1E0D0E08617970738F0509339
:100D2000080440930704DF91CF9108952491DC01DA
:100D3000A75FBB4F3C91321781F02C939C01A5E03B
:100D400036952795AA95E1F7DE0102C0AA0FBB1FD1
:100D50002A95E2F79D014A2B532B01963196DCCF61
:100D6000309106048317A0F590E0262F269526954E
:100D70002695239F800D911D1124811522E0920755
:100D80003CF5FC01E75FFB4F5081677021E030E0EC
:100D900001C0220F6A95EAF74423D9F0252B2517C5
:100DA000B9F0208325E0969587952A95E1F721E013
:100DB00030E002C0220F331F8A95E2F780910704CA
:100DC00090910804822B932B90930804809307043E
:100DD000089520952523E3CF613092E0790710F044
:100DE00060E072E0FB01E75FFB4F90819817B9F07C
:100DF000808385E0769567958A95E1F721E030E07C
:100E000002C0220F331F6A95E2F780910704909188
:100E10000804822B932B9093080480930704089571
:100E20002091060436E0839FC0011124629F800D4B
:100E3000911D1124811522E0920714F090E080E0CA
:100E4000875F9B4F9093100680930F060895CF9372
:100E5000DF9380917B0380FD0CC0D0E0C0E020E0F8
:100E600040E060E0CE010E9463062196CC30D105BF
:100E7000B1F70E94D215DF91CF91089580917B0345
:100E8000982F9C7F39F480917B03837084608093DA
:100E90007B0308958830B8F7089580E0089563E0F3
:100EA00070E08BE892E00E944D0690918A028913CF
:100EB00018C0E0918B02E830A4F488E0E802F00169
:100EC0001124E05EFE4F0680F781E02D309749F057
:100ED0002EEA32E040918D026EE872E080918C0241
:100EE00009950895E0E2F1E0A0E8B2E01C968C914B
:100EF0001C9780A31D968C9183AB0895F894E82FDE
:100F0000E295EF70F0E031A1282F2F7081E090E0A2
:100F100001C0880F2A95EAF7982F9095932391A303
:100F200092A1892B82A3789408950F931F938091A7
:100F3000AD03882329F00E942D061F910F9108957B
:100F40000E942D060091DB021091DC022091DD024F
:100F50003091DE02600F711F821F931FEECF9091C0
:100F6000ED0292FF10C041E0282F2471243009F0D7
:100F700040E031E0282F2871283009F030E0431795
:100F800011F02CE0822793FF10C041E0282F24713C
:100F9000243109F040E031E0282F2871283109F090
:100FA00030E0431711F02CE082273091EE0230FF41
:100FB00010C051E0282F2171213009F050E041E0AC
:100FC000282F2871283009F040E0541711F029E04B
:100FD000822731FF10C041E0282F2171213109F013
:100FE00040E031E0282F2871283109F030E0431724
:100FF00011F029E0822794FD877E089582389105BB
:10100000B9F1B0F48133910509F47DC048F4893217
:10101000910509F46DC08A32910509F47BC00895E9
:101020008533910509F45FC08933910509F108956D
:10103000833E9105D9F138F4803E910529F1823E35
:10104000910579F10895863E9105D9F1873E910584
:1010500009F43EC0843E910541F52091EE0221FF46
:1010600024C08091ED0284FD19C087EE90E00895C0
:101070002091ED02237009F05AC02091EE0223FF67
:1010800014C089E290E008952091ED0220FD38C05F
:101090003091EE0230FF09C024FF43C090E080E0B1
:1010A00008952091ED0222FDF7CF08952091ED02E1
:1010B00022FD3AC03091EE0230FD39C024FFF5CF59
:1010C000EDCF2091ED0223FFF0CF24FDE7CFCDCF70
:1010D0002091ED0223FD2EC03091EE0231FFEECFC4
:1010E00084EE90E008952091ED0225FFDECFC9CF78
:1010F0002091ED0225FD21C02091EE0223FFD5CFE6
:1011000089E390E0D2CF2091ED0226FFCECF8AE294
:1011100090E008952091ED0226FFC7CF81E390E093
:10112000089583EE90E0089582EE90E0089580EEB9
:1011300090E0089586EE90E0089585E390E00895AC
:10114000972F7A30B8F46630A8F48330B0F470E0AA
:1011500026E0929F600D711D1124FB019CE3899F85
:10116000E00DF11D1124EE0FFF1FE455FF4F859197
:101170009491089580E090E0089581E0FCCF1F9362
:10118000CF93DF930E94FE07EC01C11582E5D807DB
:1011900008F03FC0C11580E5D80708F0BCC0C83EC4
:1011A000D105C0F4C03ED10580F4C53AD10548F45C
:1011B000C430D10550F4C130D10539F0D0E0C0E0E1
:1011C00004C0CD3CD105D0F3D065CE01DF91CF91E5
:1011D0001F910895C11580E4D80708F06BC0C115B0
:1011E00080E2D80708F0B1C0C11581E0D80730F31C
:1011F0008D2F0E94AF07182FCE0199270E94FE075E
:10120000C12FD0E0DC2FCC27CC27DF71C82BD92B06
:10121000DCCFC03682E5D807F0F4C03482E5D807C9
:1012200008F059C0C03282E5D80708F04DC02C2F15
:101230002695269580E2289F900111248C2F83709B
:10124000C1E0D0E002C0CC0FDD1F8A95E2F7C22BCF
:10125000D32BDD68BACFC03C82E5D807F8F4C03A9A
:1012600082E5D80708F04CC0C03882E5D80708F0FE
:10127000A5CF2C2F26952695277080E2289F9001D8
:1012800011248C2F8370C1E0D0E002C0CC0FDD1F91
:101290008A95E2F7C22BD32BDA6897CFC03E82E55E
:1012A000D80708F08BCFDC2FCC27CC27DF71C06F9D
:1012B000D06A8BCFCE0199270E94FE07CC27DF7022
:1012C000C82BD92BD06A81CFCF71D0E0DC2FCC27AF
:1012D000C16FD06A7ACF2C2F26952695277080E291
:1012E000289F900111248C2F8370C1E0D0E002C0B0
:1012F000CC0FDD1F8A95E2F7C22BD32BDC6865CFBC
:101300008C2F8F710E94AF07C82FD0E0DC2FCC2725
:10131000CC27DF715ACF8C2F8F710E94AF0755E019
:10132000D695C7955A95E1F7CF70D0E0DC2FCC2742
:10133000282F30E084FF05C044E0220F331F4A9578
:10134000E1F7C22BD32BD06940CF8D2F8F710E9434
:10135000AF07182FCE0199270E94FE07C12FD0E0BA
:10136000DC2FCC27CC27DF71C82BD92BD0622DCF17
:10137000809105049091CC03981301C008958F5F6C
:101380008770FACFCF92DF92FF920F931F93CF9384
:10139000DF936C010091EC028091EB02082BC7E017
:1013A000D0E010E0FC2EC8010C2E02C09595879568
:1013B0000A94E2F780FD0CC02197A0F7F12C8F2D45
:1013C000DF91CF911F910F91FF90DF90CF90089503
:1013D000B6018C2F0E94A0080E94BF08019761F3FC
:1013E000EECFCF93DF93EC010E94C209BE010E94B1
:1013F000A0080E94BF08DF91CF910895292F9A304D
:1014000078F5863068F590E036E0239F800D911DD9
:101410001124682F677023E0969587952A95E1F748
:10142000FC01EE0FFF1FE80FF91FE45BFD4F50E0DA
:1014300040E080E0219130E0062E02C036952795ED
:101440000A94E2F721703327042E01C0220F0A9478
:10145000EAF7822B4F5F5F4F4330510559F70895EC
:1014600080E00895292F9A3098F5863088F590E02D
:1014700036E0239F800D911D1124282F277041E015
:1014800001C0440F2A95EAF723E0969587952A959F
:10149000E1F7FC01EE0FFF1FE80FF91FE45BFD4FC2
:1014A00030E020E070E05191DF011197CB01022E76
:1014B00002C0969587950A94E2F7817081958527F9
:1014C000842385278C932F5F3F4F2330310559F7B5
:1014D00008958093EB020895FC0124812223C1F03A
:1014E000808191810E94F10992959F70963091F0D0
:1014F00058F4925F9F70923058F4803F19F030F4A6
:10150000883E30F481E008959A5FF4CF843FD1F3B0
:1015100080E00895883EB0F3813FD1F7F3CF982F54
:1015200092959F7011F0892F94E0282F269526958B
:1015300011F09E5F822F869509F09F5F892F089595
:10154000A6E0B0E0E6EAFAE00C94ED2E49835A8377
:1015500049815A819923A1F0222391F0CA010E9466
:10156000C209182F682F89819A810E94320A6981E5
:101570007A81812F0E94A0082696E3E00C94092F1F
:10158000CA010E94FE09182FF2CFA6E1B0E0EBECF1
:10159000FAE00C94DE2EF82E862E2983992493945B
:1015A000E01608F0912C2E2D302FE01610F4309517
:1015B0002095D12C84E690E0B6010E94312FFB01EA
:1015C000B6016150710984E690E00E94312F7B835F
:1015D0006A83832F90E030E0281B390B642E712C36
:1015E000D12CC12CA301072C000C660B770B4C836C
:1015F0005D836E837F83AF01FF0F660B770B488798
:1016000059876A877B87A901330F660B770B4C8755
:101610005D876E877F879C01990F440B550B288B44
:10162000398B4A8B5B8BCC8A6C147D0421F46696D3
:10163000E2E10C94FA2E6C817D818E819F810E9463
:101640006F319B01AC0160E070E088EC92E40E9495
:10165000C5301B012C01B6010D2C000C880B990B19
:101660000E946F319B01AC01C201B1010E941F3287
:1016700020E030E0A9010E9454300E943731072E4B
:10168000000C880B990B0E946F311B012C0168859F
:1016900079858A859B850E946F319B01AC01C201CF
:1016A000B1010E94C5300E9437314A815B81469F5B
:1016B0005001479FB00C569FB00C11246C857D855E
:1016C0008E859F850E946F311B012C01B5010B2C6B
:1016D000000C880B990B0E946F319B01AC01C20179
:1016E000B1010E941F3220E030E048EC52E40E9439
:1016F000C5301B012C01688979898A899B890E94E0
:101700006F31A20191010E9454301B012C0110E0A5
:101710005C89537084E0589FB001112469527E4F58
:101720007E8B6D8B9981191305C02FEFC21AD20AD7
:10173000F39479CFE12FE3708D899E898E0F911DEF
:10174000FC01608170E090E080E00E946F31A201B6
:1017500091010E94C030492D87FF04C041E0E0168E
:1017600008F440E04170612F680D8F2D0E94B00693
:101770001F5FD8CF813022E0920710F080E092E026
:10178000875F9B4FFC0180810895B0E0A0E0EBEC07
:10179000FBE00C94E92E7C018B01C42F672BA9F090
:1017A0000E94BA0BD82FD82EDC220E0D1F1DC801A7
:1017B0000E94BA0BC0958C23B8018D290E94EC06BB
:1017C000B7018D2F8C230E94EC06CDB7DEB7E7E082
:1017D0000C94052FA4E0B0E0E0EFFBE00C94DE2ECB
:1017E0008F3108F083C06F3708F080C0A82FB0E0B9
:1017F000FD01E40FF11DB1970CF475C040E2481BE8
:10180000E22EE60EFF24FF1CC7018038910514F07C
:101810002FE7261B223008F469C0CD01840F911DEB
:10182000800F911F80970CF0401B862F8770E8E097
:10183000F0E0E81BF109362F320F532F57708FEF6E
:1018400090E07C010E2E02C0F694E7940A94E2F731
:10185000E094EA82262E26942694269470E2279E0F
:10186000100111242A0E3B1E6E0F66956695669533
:1018700070E2679F200111244A0E5B1E3695369553
:10188000369560E2369F300111246A0E7B1EE22EEF
:10189000F12CEE1AFF0AE51AF108FC82EB8229EF1F
:1018A000E2162FEFF20634F101C0880F5A95EAF7DD
:1018B000E82EE094E9822B813C8137FF04C0295F48
:1018C0003F4F3C832B83EB80FC8083E0F594E794CF
:1018D0008A95E1F7FC82EB82E42EF12C17FF39C0E8
:1018E000D12CC12C26C0423008F08ACF2496E2E1E8
:1018F0000C94FA2E1C821B821982EECF4A81B80109
:10190000C1018C0D9D1D0E94C50B4981B801C30109
:101910008C0D9D1D0E94C50B42018C0C9D1CB12C91
:10192000A12C6B817C81A616B70639F47FEFC71A0C
:10193000D70ACE14DF0410F3D9CF4FEFB801C4019A
:101940000E94C50B2FEFA21AB20A30E2830E911C3F
:10195000E8CF81E0E81AF1086FEFE616F60631F2FB
:101960004A81B801C1018E0D9F1D0E94C50B49819E
:10197000B801C3018E0D9F1D0E94C50B5201AE0C14
:10198000BF1CD12CC12C2B813C81C216D30621F463
:1019900031E0E31AF108E0CF4FEFB801C5010E9432
:1019A000C50B9FEFC91AD90AE0E2AE0EB11CEBCF0E
:1019B000B0E0A0E0EEEDFCE00C94E82E182FF62E3F
:1019C000442399F1011103C02223A1F1141B842F98
:1019D0008695942F9170980FCFEFC90FC42EC6949F
:1019E000C694C394D42FD91B222331F1C10FD12C1B
:1019F000082F010F4E2D6F2D802F8D0D0E94B006E8
:101A00004E2D6F2D8C2F0E94B0064E2D6F2D812FE5
:101A10008D0D0E94B0064E2D6F2D8D2F8C0F0E94C4
:101A2000B006D394C150DC1428F3CDB7DEB7E8E09C
:101A30000C94042FF41ACBCFCF0DD12C082F0F0DFF
:101A4000602F6D0D4E2D812F0E94B0064E2D6C2FF4
:101A5000812F0E94B0066F2D6D0D4E2D812F0E949B
:101A6000B0066D2F6C0F4E2D812F0E94B006D394BF
:101A7000C150DC1428F3D9CFEF920F936038710571
:101A8000D8F4481759072CF4382F292FCA01432FAF
:101A9000522F8032910514F08FE190E097FD80E0A5
:101AA0004032510514F04FE150E0481BEE24E3941E
:101AB00001E021E00E94D80C0F91EF900895B0E072
:101AC000A0E0E5E6FDE00C94E82E7C01EB016A0164
:101AD000022F10E0B8016C0F7D1F0E943C0DBE016B
:101AE000601B710BA601C7010E943C0DCDB7DEB78C
:101AF000E8E00C94042FB0E0A0E0E1E8FDE00C94F5
:101B0000E52EEC017B01942E042F10E06C01C01A2D
:101B1000D10A5801A80EB91EA501C6010E943C0DAC
:101B2000B8016E0D7F1D603871051CF4C032D105FF
:101B30006CF1B701601B710B6038710538F4C0326D
:101B4000D10524F441E08C2F0E94B00621E0A501CC
:101B5000B701C6010E945F0DAE014F5F5F4F292D97
:101B6000B701CE0101970E945F0D01501109AE012E
:101B7000400F511F22E0B701CE01801B910B0E9444
:101B80005F0DCDB7DEB7EBE00C94012F41E08C2F59
:101B90000E94B006CECFEF920F93E22E01E021E03B
:101BA0000E94D80C0F91EF900895FF920F931F930E
:101BB000CF93DF93F82ED0E0C0E0062F10E06F2D1A
:101BC0006C1B21E049E183E00E94CB0D6C2F6F0D6F
:101BD00021E049E183E00E94CB0D2196C017D10797
:101BE00074F3CDB7DEB7E5E00C94072FEF920F93B7
:101BF0001F93CF93DF93D82F162FC42F21E00E947D
:101C0000CB0D67E0610F21E04C2F8D2F0E94CB0D93
:101C1000EE24E39401E020E048E0612F8D2F0E9444
:101C2000D80C8FEF8C0F20E048E0612F8D0F0E94C1
:101C3000D80CDF91CF911F910F91EF900895FF92F3
:101C40000F931F93CF93DF93182FC62FF42ED22F0D
:101C5000D60F202F4F2D6C2F812F0E94CB0DCF5FE1
:101C6000CD13F7CFCDB7DEB7E5E00C94072FEF9299
:101C7000FF920F931F93CF93E62F7A01DA01CC9155
:101C800041E050E060E070E00C2E04C0440F551FAE
:101C9000661F771F0A94D2F70423152326233723C0
:101CA00091E0041715072607370709F490E0092F7C
:101CB00023E043E06E2F0E941F0ECF5FF701C08329
:101CC000CF911F910F91FF90EF900895A1E0B0E0A8
:101CD000ECE6FEE00C94E52E6B017C0119822CE30E
:101CE000B22E8EEF982E9B0C9AE0A92E97018601BA
:101CF000AE014F5F5F4F692D8A2D0E94370E84E041
:101D0000A80E8AE1A812F2CF9701AE014F5F5F4F94
:101D10006B2D82E00E94370E9701AE014F5F5F4F3F
:101D20006B2D86E00E94370E84E0B80E8CE4B8126A
:101D3000D8CF9701AE014F5F5F4F6AE48CE00E94FD
:101D4000370E9701AE014F5F5F4F6AE480E10E945A
:101D5000370E9701AE014F5F5F4F6AE484E10E9446
:101D6000370E9701AE014F5F5F4F64E48AE10E9436
:101D7000370E9701AE014F5F5F4F6AE48AE10E9420
:101D8000370E44E06AE38AE10E94F60D21E048E064
:101D90006AE381E00E94CB0D41E069E388E00E94A4
:101DA000B00621E047E168E388E00E94CB0D21E026
:101DB0004AE06CE481E00E94CB0D41E06DE48AE0F2
:101DC0000E94B00621E040E16EE48AE00E94CB0D63
:101DD000EE24E39401E020E041E16BE380E00E9427
:101DE000D80C20E044E169E38FE10E94D80C41E087
:101DF0006DE48EE10E94B00641E06EE48DE10E9448
:101E0000B00641E06FE48CE10E94B00641E060E57D
:101E10008BE10E94B00641E06FE48AE10E94B006C7
:101E20002196EBE00C94012F209148023091490259
:101E300040914A0250914B026DEF73E483E090E0D1
:101E40000E94152F6D537146894D9F4F6093480234
:101E50007093490280934A0290934B020895ABE03D
:101E6000B0E0E5E3FFE00C94DE2E382E69830E949B
:101E7000140F6B017C010E94140F4B015C0110E0F8
:101E800000E03981232F30E03A83298349815A8148
:101E9000041715070CF465C0D701C601B695A795C0
:101EA0009795879551E08527282F21702D831B86D4
:101EB0001A86412C512C320143942A84D301C20149
:101EC000022C04C0880F991FAA1FBB1F0A94D2F7C7
:101ED00089839A83AB83BC838C219D21AE21BF2152
:101EE0008E839F83A887B98710E000E089819A815B
:101EF000AB81BC812E813F8148855985821793072C
:101F0000A407B507D9F4D301C201002E04C0880F7D
:101F1000991FAA1FBB1F0A94D2F7B501A401482339
:101F200059236A237B2384179507A607B70731F443
:101F30004D81632D600F822D0E94B0060F5F1F4FF1
:101F40000032110599F64A855B854F5F5F4F5B87CD
:101F50004A874032510509F0B0CF2B96E2E10C944C
:101F6000FA2E0E94140FC622D722E822F9220E94DC
:101F7000140F86229722A822B9220F5F1F4F86CF07
:101F8000209148023091490240914A0250914B02FF
:101F90006DEF73E483E090E00E94152F6D5371465E
:101FA000894D9F4F609348027093490280934A0283
:101FB00090934B029F7708954F925F926F927F921A
:101FC0008F929F92AF92BF92CF92EF92FF920F9318
:101FD0001F93CF93DF93EC014B015A01F22E6881DE
:101FE00079818A819B810E941106F40120813181CF
:101FF0002901330F660877084616570668067906E2
:1020000000F50E942D06688379838A839B83CF2DF8
:10201000D0E00E94C00FB8016C1B7D0B0E94CA2E3D
:10202000C80FD91FF401D183C0830E94C00F64E69A
:1020300070E00E94312FE816190609F094F4F501BA
:102040001082DF91CF911F910F91FF90EF90CF9071
:10205000BF90AF909F908F907F906F905F904F90C8
:1020600008950E94C00F6C2D70E00E94312FF50181
:102070008083E7CF609144027091450280914602CF
:10208000909147020E941106072E000C880B990BB5
:102090000E946F3120E030E04AE755E40E9453305F
:1020A00029E838E848E85CE30E941F3220E030E08D
:1020B000A9010E9454300E943731862F0895CF9293
:1020C000DF92EF92FF926091400270914102809105
:1020D0004202909143020E94110668357B418105BE
:1020E000910508F441C060913C0270913D028091DD
:1020F0003E0290913F020E9411066C3271408105B0
:102100009105A0F1C0904402D0904502E0904602B3
:10211000F0904702C701B6010E941106613A7F4064
:102120008105910548F0C701B6010E941106603192
:10213000774281059105E0F0C701B6010E941106C2
:102140006031774281059105B8F0C701B6010E9460
:102150001106603576448105910570F485E0FF90A5
:10216000EF90DF90CF90089584E0F9CF80E0F7CF33
:1021700081E0F5CF83E0F3CFC701B6010E941106DD
:102180006035764481059105A8F382E0E8CF0E948E
:102190005F108230A9F40E942D0660934002709374
:1021A000410280934202909343020E942D06609365
:1021B000440270934502809346029093470208952B
:1021C000843069F08130C1F40E942D0660933C0296
:1021D00070933D0280933E0290933F02E6CF80E4ED
:1021E00092E4AFE0B0E08093400290934102A0936C
:1021F0004202B0934302E8CF84508230B0F6E4CF7D
:10220000EF920F9300E028E74CE162E583E00E9443
:102210001F0E21E040E26FE781E00E94CB0DEE242B
:10222000E39420E04AE26EE780E00E94D80C20E0D0
:102230004FE26EE78FE10E94D80C0F91EF90089566
:10224000E9E0F4E080E092E0DF019C011D92215082
:102250003040E1F7F0931006E0930F068FEF9FEF09
:1022600090930804809307040895CF93DF93C0915F
:102270000F06D09110068A30C1F420910604CE01D9
:1022800089509440622F70E00E94CA2E281B822F32
:1022900066E00E94252FC82FC15018F4DF91CF911E
:1022A000089580E20E943511F7CF8D30E9F4C950CE
:1022B000D44020910604622F70E0CE010E94CA2E05
:1022C000281B822F9E01280F311D2115324018F046
:1022D00080E0D0E0C0E0C80FD11DC75FDB4FD093D6
:1022E0001006C0930F06DACF96E0FE01A9E0B6E033
:1022F00001900D929A95E1F78E3708F458C086E068
:10230000FE0111928A95E9F7C0910F06D09110064F
:1023100046E050E0BE0189E096E00E94E52F9E0174
:1023200029503440892B41F1C90145E096958795A4
:102330004A95E1F741E050E0BA0102C0660F771F0D
:102340008A95E2F7CB016091070470910804862B0F
:10235000972BB9016B5F7F4FE5E076956795EA951E
:10236000E1F702C0440F551F6A95E2F7842B952BC5
:1023700090930804809307042A5F3F4F409106041E
:10238000642F70E0C9010E94CA2E481B463010F429
:10239000240F311D211572E0370710F030E020E0E6
:1023A000275F3B4F3093100620930F0677CFF6E060
:1023B0008F9FB001112468547A4F46E050E0CE015F
:1023C0000E94DC2FA1CFCF93DF93D82FC62F57FDCC
:1023D00012C04436510544F40E94C00F6FE070E013
:1023E0000E94312FC1E0C80F6CE08D2F0E941007B2
:1023F0008C2F0E943511DF91CF9108958091B70302
:1024000090916B02892B80932A0248E050E06CE6A1
:1024100072E08AE292E00E94E52F892BA9F088E021
:10242000EAE2F2E0ACE6B2E001900D928A95E1F7C3
:10243000E091AF03F091B003309731F00280F38167
:10244000E02D8AE292E009950895ECE2F2E086E060
:10245000DF011D928A95E9F710926B020E94FE112E
:102460000895AAE2B0E0E7E3F2E10C94ED2E83ECEC
:1024700093E02091F100FC012193CF01F3E08B3C2C
:102480009F07B9F78091C403833009F470C0B8F492
:10249000813009F447C0823009F4B7C08091E80068
:1024A00083FF3FC18091C3039091C4039A3008F029
:1024B00038C1E92FF0E0E257FD4C0C94642F8A30CC
:1024C00009F492C08B3009F46FC0893039F78091DC
:1024D000C303813219F78091C7039091C803892BF8
:1024E000E9F68091E800877F8093E8008091E8001A
:1024F00082FF38C09091F3008091F200029731F48E
:102500008091F100813011F0863021F48091F1004A
:10251000809361018091E8008B778093E8000E94AE
:102520009105BCCF8091C303813A09F0B7CF809168
:10253000E800877F8093E8008091C7039091C803EB
:10254000892B61F468E088EB93E070E00E94B005AD
:102550008091E8008B778093E800A0CF60E090E066
:1025600080E0F3CF8091CB038111C0CF97CF8091D2
:10257000C303813A09F092CF8091C7039091C803B9
:10258000892B09F08BCF8091E800877F8093E8004A
:102590008091E80080FFFCCF809162018093F10080
:1025A0008091E8008E77B9CF8091C303813209F022
:1025B00075CF8091C7039091C803892B09F06ECF26
:1025C0008091E800877F8093E8000E94910581E078
:1025D0009091C503911101C080E080936201109237
:1025E000B7030E9425125ACF8091C303813209F0AC
:1025F00055CF8091E800877F8093E8000E94910585
:102600008091C6038093600149CF8091C303813AD2
:1026100009F044CF8091E800877F8093E8008091A3
:10262000E80080FFFCCF80916001B8CF803899F03E
:10263000823809F076C08091C7038F70873008F028
:1026400070C08093E9008091EB0085FB882780F9BA
:102650001092E90006C08091C0039091C1039111CE
:1026600082609091E800977F9093E8008093F1005A
:102670001092F1008091E8008E7794C1882309F4CC
:1026800081C1823009F04DC08091C503811185C19F
:102690008091C7038F702FEF280F263008F041C0BC
:1026A0008093E9002091EB0020FF77C1933031F453
:1026B0008091EB0080628093EB006FC19091EB0002
:1026C00090619093EB0021E030E001C0220F8A95E9
:1026D000EAF72093EA001092EA008091EB0088600C
:1026E000EACF81111EC01091C5031F778091E300CE
:1026F0008078812B8093E3008091E800877F80932E
:10270000E8000E9491058091E80080FFFCCF809155
:10271000E30080688093E30082E0111183E08093FE
:10272000CB038091E80083FF0AC08091E800877F97
:102730008093E8008091EB0080628093EB00AA9682
:10274000E3E00C94092F8058823058F78091C5033C
:102750009091C6038C3D23E09207A1F583E08A8324
:102760008AE289834FB7F894DE01139620E03EE0B9
:1027700051E2E32FF0E050935700E49120FF03C0B3
:10278000E295EF703F5FEF708E2F90E0EA30C0F07F
:10279000C7968D939D932F5F243159F74FBF80913A
:1027A000E800877F8093E8006AE270E0CE0101963E
:1027B0000E94B0058091E8008B778093E800B1CF4C
:1027C000C096E7CF4091C7035091C803292F332704
:1027D0002330310509F43FC078F52130310509F483
:1027E00066C082E290E0EEE5F5E02230310509F0C6
:1027F00098CF2091E800277F2093E8002091C9031B
:102800003091CA038217930708F49C0140E0211518
:10281000310509F051C041114FC08091E80082FD9F
:10282000C9CF8091CB03882329F2853019F280919A
:10283000E80083FFF2CFBECF2132310581F1223291
:10284000310509F06ECF452B09F06BCF84E490E0A1
:10285000EAE1F5E0CECF992781309105C1F00097EC
:1028600059F0029709F05DCFE2E9F5E0E4918E2F8F
:1028700090E0E2E9F5E007C0E4EBF5E0E4918E2FAB
:1028800090E0E4EBF5E0009709F0B3CF4ACFE2EA3D
:10289000F5E0E4918E2F90E0E2EAF5E0F4CF452BED
:1028A00009F03FCF89E090E0E0E7F5E0A2CF82E1D8
:1028B00090E0E0E8F5E09DCF8091CB03882309F418
:1028C00079CF853009F476CF8091E80083FD72CF0F
:1028D0008091E80082FDA1CF8091E80080FF97CF32
:1028E0009091F3008091F2002115310519F08830A4
:1028F000910550F041E0089709F040E08091E80030
:102900008E778093E80083CF44914093F100319615
:10291000215031090196E8CF803809F002CF80912B
:10292000E800877F8093E8008091C2038093F100E4
:10293000A1CE8111F6CE1091C503123008F0F1CE70
:102940008091E800877F8093E8001093C2030E9483
:102950009105112311F084E005C08091E30087FD0B
:10296000FACF81E08093CB0361EC81E00E94B50453
:102970008091CB03843021F081E080936301D1CE3C
:1029800082E0FBCF8091C503813009F0CACE81E09F
:10299000933009F080E08093C1031092E9008091A8
:1029A000E800877F8093E8000E949105BACE8823D3
:1029B00041F080959091B70389238093B7030E94DB
:1029C000FE110895882339F09091B703982B9093C6
:1029D000B7030E94FE110895882391F09CEF980F91
:1029E000913A78F4ECE2F2E09191891303C0DF01AF
:1029F00011971C9242E0E233F407B1F70E94FE11F6
:102A0000089590E2980F9830D8F7877021E030E071
:102A1000A90102C0440F551F8A95E2F7CA018095AB
:102A20009091B70389238093B703E8CF0F931F9347
:102A3000CF93C82F882339F18CEF8C0F813AB0F5F2
:102A40000CE212E0F8018191C81709F182E0E2334B
:102A5000F807C9F7EFEF80E0D8019D918D01C91704
:102A600081F0EF3F19F4911101C0E82F8F5F86309C
:102A700099F7EF3F31F00E2E000CFF0BE65DFD4F96
:102A8000C2830E94FE11CF911F910F910895ECE235
:102A9000F2E08191C81303C0DF0111971C92A2E0FC
:102AA000E233FA07B1F70E94FE11D4CF80E28C0F17
:102AB000883048F7C77021E030E001C0220FCA9586
:102AC000EAF78091B703822B8093B703DACF0F9395
:102AD0001F93CF93DF93EA010E941007FE0101903C
:102AE0000020E9F78F0101501109C017D10728F024
:102AF000DF91CF911F910F91089589910E94351117
:102B0000F4CF0F931F93CF93DF938C018091CB036E
:102B1000843059F581E08093E9008FEF9091E800CF
:102B2000815095FD06C095ED9A95F1F70000811151
:102B3000F5CF8091E80085FF18C00E9460058111E3
:102B40000FC0C8E0D0E08091E80085FD13C08091FF
:102B5000E8008E778093E8000E946005882399F34F
:102B60008091E8008E778093E800DF91CF911F91EC
:102B70000F910895F80181918F018093F1002197C1
:102B800011F7EECFCF93DF93EC010E94811588E01F
:102B9000FE01A8EBB3E001900D928A95E1F7DF9179
:102BA000CF9108953BB1377F2BB128604FB7F89490
:102BB00089E893E0FC015191CF0168E02BB9000056
:102BC00000C057FF3BB9550F000000C000C000C057
:102BD0003BB900C06A9591F7F3E08D3A9F0751F732
:102BE0004FBF8FE594E00197F1F700C00000089512
:102BF000B0E0A0E0EEEFF5E10C94E62E7C015B0185
:102C00006A018091770301E010E08A3010F40AE055
:102C100010E0C1E0D0E0B501C701F60109958111CE
:102C200004C021960C171D072CF4CDB7DEB7EAE0DF
:102C30000C94022FCC9F9001CD9F300D300D1124AC
:102C400090E080E045E34A95F1F700000196821795
:102C50009307C1F7E0CF1092B7030E9425122FEF20
:102C600084E39CE0215080409040E1F700C00000E8
:102C700088E19CE00FB6F894A895809360000FBEA1
:102C800090936000FFCFAB0124E630E0BC0188E701
:102C90000E947E2C21E0892B09F020E0822F0895EC
:102CA0008091870390918803911103C091E0892757
:102CB0000895882369F062E070E088E195E00E9461
:102CC0004316811103C080918703089510928703F2
:102CD00080918703EBCFCF93C091870380918803C6
:102CE0008823D1F00E942D06605A75418F4F9F4F67
:102CF000609383037093840380938503909386038A
:102D0000C11108C062E070E086E195E00E944316C0
:102D1000811105C0C09187038C2FCF91089581E068
:102D200080938703F7CFB0E0A0E0E9E9F6E10C94E7
:102D3000E42E49015A016B017C010E943E07840187
:102D4000A4016A2D7B2D88E090E00E94313094012F
:102D50004A2D5B2DB601C70100E20E94902F622F21
:102D600083E290E00E941F30CDB7DEB7ECE00C9418
:102D7000002FB0E0A0E0EFEBF6E10C94E42E082F7A
:102D8000162FB42E822E90907B0390FE37C0892D93
:102D90008C7F8430E1F4E42FF0E0EA5EFB4F6111B8
:102DA00032C0C491DC2FFC2E90FE11C0D12CC12C5E
:102DB0002D2F4F2D6C2FC6010E9463065FEFC51AA1
:102DC000D50A8CE0C816D10499F70E942707009312
:102DD0007C0310937D03B0927E03882079F02091CC
:102DE0007B0360917F0370918003302F412F5B2D17
:102DF00080918103909182030E949316CDB7DEB734
:102E0000ECE00C94002FE62EF12CC491AC2EEC2FAC
:102E1000F0E026E0029FC00111242FEF30E0B9015D
:102E20000E94CA2E802F90E0880F991FA5E5A69FCB
:102E3000A001A79F500D1124841B950BA82FAA0F4A
:102E4000A80FA9014E195F094E9FC0014F9F900D19
:102E50005E9F900D1124D92F1A9FA0011124452F98
:102E600055276901C41AD50AA6014E9F60014F9FDC
:102E7000D00C5E9FD00C1124A9014A1B5109DA0124
:102E8000AE9DA001AF9D500DBE9D500D1124452F4C
:102E90005527241B350B2E9FA0012F9F500D3E9FC1
:102EA000500D1124F52E62307105A1F050F461151A
:102EB000710509F479CF6130710581F0F92EDD2DAE
:102EC00073CF6430710569F080F06630710509F4E4
:102ED0006BCFF4CFC92FD52FFA2C66CFFC2ECD2D7A
:102EE00063CFC52FF92EDA2D5FCFFD2CC92FFBCF75
:102EF000EBE7F3E0438121E1421B08F440E021E0ED
:102F0000628181810E94B9160895EBE7F3E0438165
:102F100021E1420F08F44FEF21E0628181810E949C
:102F2000B9160895EBE7F3E0628121E1621B08F432
:102F300060E021E0438181810E94B9160895EBE7AA
:102F4000F3E0628121E1620F08F46FEF21E0438139
:102F500081810E94B9160895EBE7F3E0818121E0B9
:102F60004381628188500E94B9160895EBE7F3E02F
:102F7000818121E043816281885F0E94B9160895B2
:102F800080917F03882319F0815080937F032091E3
:102F90007B0330917C0340917D0350917E036091CF
:102FA0007F037091800380918103909182030E943E
:102FB0009316089580917F03833018F48F5F809378
:102FC0007F0320917B0330917C0340917D035091DE
:102FD0007E0360917F0370918003809181039091C3
:102FE00082030E949316089520917B0320FF1FC047
:102FF0002370246020937B03662381F030917C034F
:1030000040917D0350917E0360917F037091800316
:1030100080918103909182030E94931620E0409159
:103020007E0360917D0380917C030E94B916089510
:1030300080917B0386958695815009F481E061E05B
:103040000E94F417089561E081E00E94F41708954A
:10305000B0E0A0E0EEE2F8E10C94E92E7901C82F8F
:10306000880FDD0B41155105A9F0FE0193E0EE0F2D
:10307000FF1F9A95E1F7E05EFE4F818192818058B3
:103080009D4F208130E04217530708F49A01A901AF
:103090000E94F22FCE010E94542ED82E8823D1F008
:1030A00001151105B9F083E0CC0FDD1F8A95E1F71A
:1030B000FE01E05EFE4F438150E00417150708F45F
:1030C000A801C05EDE4F6C817D8160587D4FC701D5
:1030D0000E94F22F8D2DCDB7DEB7E7E00C94052FBF
:1030E000A4E0B0E0E6E7F8E10C94EC2E6091D702A2
:1030F0007091D8028091D9029091DA020E94110653
:1031000011E0643671058105910518F10E9495075B
:103110006E5F7F4F8F4F9F4F69837A838B839C8332
:1031200010E000E030E020E044E050E0BE016F5FDE
:103130007F4F82E00E942818182F882351F00E94A8
:103140002D066093D7027093D8028093D902909392
:10315000DA02812F2496E4E00C94082FA6E0B0E078
:10316000E4EBF8E10C94EA2E7B0101E010E09E0113
:103170002A5F3F4F50E040E070E060E080E00E9456
:103180002818182F882309F446C06091D302709143
:10319000D4028091D5029091D6020E941106643625
:1031A00071058105910548F465E070E081E892E0E1
:1031B0000E944D069E81891771F105E010E09E0185
:1031C0002F5F3F4F50E040E070E060E081E00E9400
:1031D0002818082F65E070E081E892E00E944D0613
:1031E00011E09E81981310E0102301F10E942D063A
:1031F0006093D3027093D4028093D5029093D60249
:1032000085E0FE013196AEECB2E001900D928A9518
:10321000E1F711E00BC085E0E1E8F2E0DE01119694
:1032200001900D928A95E1F71111EACF85E0EEEC5D
:10323000F2E0D70101900D928A95E1F7812F269651
:10324000E6E00C94062F1F920F920FB60F921124F6
:103250002F933F934F935F936F937F938F939F939E
:10326000AF93BF93CF93DF93EF93FF93D091E90098
:10327000DF708091EC00C82FC17080FDC0E8109213
:10328000E9008091F000877F8093F00078940E949D
:1032900031121092E9008091F00088608093F00074
:1032A000CD2BCF70C093E900FF91EF91DF91CF91CB
:1032B000BF91AF919F918F917F916F915F914F914E
:1032C0003F912F910F900FBE0F901F9018951F9256
:1032D0000F920FB60F9211242F933F934F935F934A
:1032E0006F937F938F939F93AF93BF93EF93FF93CE
:1032F0008091E10082FF09C08091E20082FF05C059
:103300008091E1008B7F8093E1008091DA0080FF63
:1033100024C08091D80080FF20C08091DA008E7F89
:103320008093DA008091D90080FFA9C080E189BD37
:1033300082E189BD09B400FEFDCF81E08093CB031B
:103340008091B603811109C00E94E7040E9406051E
:103350008091E20084608093E2008091E10080FF30
:103360001AC08091E20080FF16C08091E2008E7F3B
:103370008093E2008091E20080618093E20080917E
:10338000D80080628093D80019BC85E08093CB037D
:1033900083E0809363018091E10084FF30C08091DD
:1033A000E20084FF2CC080E189BD82E189BD99B52E
:1033B000892F817090FFFBCF9091D8009F7D9093D3
:1033C000D8009091E1009F7E9093E1009091E200FF
:1033D0009F7E9093E2009091E20091609093E200D2
:1033E0009091C203992309F450C094E09093CB03C9
:1033F0009091CB03943009F482E080936301809133
:10340000E10083FF2BC08091E20083FF27C0809101
:10341000E100877F8093E10082E08093CB031092EC
:10342000C2038091E1008E7F8093E1008091E200F1
:103430008E7F8093E2008091E20080618093E200C1
:1034400060E080E00E94B5048091F0008860809385
:10345000F00081E08093630180936201FF91EF911E
:10346000BF91AF919F918F917F916F915F914F919C
:103470003F912F910F900FBE0F901F90189519BC80
:103480001092CB031092B60368CF9091E30097FDA2
:1034900002C0982FABCF93E0A9CF78941F921FB6AC
:1034A0001F9211248F939F93AF93BF938091B20388
:1034B0009091B303A091B403B091B5030196A11DFF
:1034C000B11D8093B2039093B303A093B403B09360
:1034D000B503BF91AF919F918F911F901FBE1F9019
:1034E00018959C014FB7F8948091B2039091B30363
:1034F000A091B403B091B5034FBF821B930B089505
:103500002FB7F8948091B2039091B303A091B403C4
:10351000B091B5032FBF0895AFE0B0E0E2E9FAE162
:103520000C94E32E8E010F5F1F4F8AE0F801119279
:103530008A95E9F789EEC82E81E0D82EF12CE12C8E
:10354000AA24A394B12C24EF822E21E0922EF6011E
:1035500081916F018F3F09F442C0F894E82FE29502
:10356000EF70F0E021A18F70A50102C0440F551F3C
:103570008A95E2F7CA01922F982B91A392A1809588
:10358000892382A3789400C0EEEEF1E0712C31E043
:1035900021912F3F09F48CC0A22FA295AF70B0E00B
:1035A00090968C9190E02F7002C0959587952A9502
:1035B000E2F780FD7DC0832F782A330F8E169F0699
:1035C00039F7F601319780818F3F11F00E947E0715
:1035D00050EA5A95F1F7F801EE0DFF1D70828FEF5A
:1035E000E81AF80AE5E0EE16F10409F0B0CF4AE077
:1035F00050E0B8018FED92E00E94E52F009741F076
:103600002AE0F801AFEDB2E001900D922A95E1F7C2
:103610000091EA0210E000511D4F892B09F44AC0C5
:1036200081E0809378020E94801A909377028093C1
:103630007602F12CE090AD03EE2009F492C06E0109
:10364000FBE0CF0ED11C85E0F60111928A95E9F7D7
:10365000809177038A3008F051C04EEA58E1B601F4
:10366000C8010E94F815882309F46AC040E758E1B0
:10367000B601C8010E94F815882309F461C01092B0
:1036800077038091E90290E045E050E0B601805177
:103690009D4F0E94E52F21E020937F02892B09F0A6
:1036A00042C0E12C8E2D8F292F96EDE00C94FF2E39
:1036B00080E082CFF0907802FF2009F4BACF8091A9
:1036C0007602909177020E94711A059708F4B1CFA3
:1036D00045E050E06FED72E0C8010E94E52F892BB4
:1036E00059F085E0EFEDF2E0D80101900D928A9556
:1036F000E1F7109278029ECFF12CFBCF80917902F6
:1037000090917A020E94711A843F914008F0A5CFEF
:1037100080917F02882329F285E0F60111928A9533
:10372000E9F710927F02A091E902B0E0A051BD4FED
:1037300085E0FE013B9601900D928A95E1F7B2CFAC
:10374000809177038F3F31F08F5F809377038A30CA
:1037500008F497CF0E94801A90937A02809379029E
:10376000D7CF85E0F801A1E8B2E001900D928A95EB
:10377000E1F765E070E081E892E00E944D068093F9
:1037800080028090860290908702A0908802B0907C
:10379000890280917B0290917C02A0917D02B09180
:1037A0007E0288169906AA06BB0609F47BCF809292
:1037B0007B0290927C02A0927D02B0927E020E94D7
:1037C0002D06861A970AA80AB90A8092DB029092FF
:1037D000DC02A092DD02B092DE0264CFCF93C82F4C
:1037E0000E94801A90931303809312038C2F0E94DF
:1037F0008F0A80931103811104C010921401CF919C
:10380000089587E080931401FACFCF93C82F0E94C8
:10381000EE1BC093EC02CF91089521E030E001C08F
:10382000220F8A95EAF720958091EC0282230E946C
:10383000051C089521E030E001C0220F8A95EAF7C7
:103840008091EC02822B0E94051C0895B0E0A0E05C
:10385000ECE2FCE10C94E22EC0913B02D091180105
:10386000CD1385C00E943A1062E0C62EE82E0EE508
:1038700011E026E944E352E060E071E085E392E084
:103880000E94DC0F80913402882339F0813041F0AE
:10389000CDB7DEB7EEE00C94FE2E0E940011F8CFFB
:1038A00080913202909133020E94711ACD9780F379
:1038B0000E94801A90933302809332020E9400117A
:1038C00024E0D22E36E0832E912C44E1A42EB12C9C
:1038D000C3E1D0E054E6652E712C0E94C00FB40104
:1038E0000E94312F14E0180F0E94C00F7C010E942B
:1038F000C00FFC01C701B5010E94312F35E5380F1B
:10390000CF01BE010E94312F94E0C92EEE24EA942B
:103910000FEF212F412F632F8D5F0E94C50A0E9458
:10392000C00FB4010E94312F182F0E94C00FB301A5
:103930000E94312F04E6080F0E94C00F7C010E94F4
:10394000C00FFC01C701B5010E94312F34E6380FCA
:10395000CF01BE010E94312FE02E212F412F632F76
:103960008D5F0E94C50ADA94D110B7CF91CF8091B4
:10397000390290913A020E94711A0C2F10E0F8015E
:10398000E353FE4F20812817190608F081CF0E94CB
:10399000801A90933A02809339020E940011CA3033
:1039A00048F4F801E856FD4C0C94642F61E188E678
:1039B0000E94D50DCD1708F07FC0CF5FC0933B02AA
:1039C00067CF6CE0F4CF65E0F2CF63E0F0CF62E068
:1039D00088E60E94D50D43E068E670E08FE090E055
:1039E0000E947B0DE7CF21E049E168E683E00E9479
:1039F000CB0D42E0F1CF21E042E069E68FE00E948A
:103A0000CB0D21E042E067E68FE00E94CB0D21E084
:103A100049E168E683E00E94CB0DCCCF21E042E093
:103A200069E68FE00E94CB0D21E042E067E68FE07F
:103A30000E94CB0D21E042E168E687E00E94CB0DB9
:103A400041E068E684E00E94B00641E068E68BE170
:103A50000E94B006AFCF21E042E069E68FE00E940D
:103A6000CB0D21E042E067E68FE00E94CB0D21E024
:103A700044E068E68DE00E94CB0D21E042E068E67C
:103A800088E00E94CB0D21E043E068E685E10E94DA
:103A9000CB0D41E068E686E00E94B00641E068E6B2
:103AA0008BE10E94B00641E068E68DE1D1CF21E0D4
:103AB00042E068E68FE0AFCFC15080CF0E94801A0D
:103AC00090933A028093390289E080933B021092EE
:103AD000180108958F929F92AF92BF92CF92DF927A
:103AE000EF92FF9280911603909117030097F1F1E6
:103AF0000E94711AC0901803D09019039C0150E0E5
:103B000040E060E67AEE80E090E00E94452FCA0136
:103B1000B90125E030E040E050E00E94452F0D2C37
:103B2000000CEE08FF08CA01B9016C197D098E0965
:103B30009F090E946F3127EA39E747E45DE30E945D
:103B40001F324B015C01C701B6010E946F319B011E
:103B5000AC01C501B4010E9454300E94373167396D
:103B600071058CF570931903609318030E94801AF5
:103B7000909317038093160380911403909115037B
:103B80000E94711A853F21E0920720F188E290E0BF
:103B900090931B0380931A030E94801A909315033D
:103BA000809314030E945F10813021F50E945E1DF6
:103BB0000E94C710FF90EF90DF90CF90BF90AF9022
:103BC0009F908F90089586E990E0909319038093D9
:103BD0001803CCCF44E6489F9001499F300D112433
:103BE000C90164EF71E00E94CA2E84E690E0861B52
:103BF000970BCECF9CEF980F923018F40E942011B3
:103C0000D5CF8230A9F60E9420110E945E1D10922D
:103C10000703CECFFB01808191810E946A1D089528
:103C2000B0E0A0E0E6E1FEE10C94E92E8C01FC019D
:103C30008481882309F444C021E04081518162815C
:103C4000738195810E94A00AEC01F8018581882387
:103C500051F0D0937903C093780381E080937A0385
:103C6000CE010E946A1DF8019581992309F468C06C
:103C70008091B7038272FE01E052F847EB30F10504
:103C800008F05EC0EE55FD4C0C94642F80917B03D0
:103C900080FF1BC0282F2E7F20937B0330917C0355
:103CA00040917D0350917E0360917F03709180036A
:103CB00080918103909182030E9493160E942707AE
:103CC000CDB7DEB7E7E00C94052F816080937B03CE
:103CD00061E0869586950E94F417F2CF882329F03B
:103CE0000E941818EDCF8823D9F30E942318E8CF3B
:103CF000882329F00E94AC17E3CF8823D9F30E94D0
:103D0000B617DECF882329F00E949217D9CF8823D7
:103D1000D9F30E949F17D4CF882329F00E947817E7
:103D2000CFCF8823D9F30E948517CACF882329F0E3
:103D30000E94C017C5CF8823D9F30E94DA17C0CFDD
:103D40009E01205E324520323105A8F491115CC0FD
:103D5000CF7181E090E09C0102C0220F331FCA9511
:103D6000E2F7E901622F83E090E00E941F308C2F80
:103D70000E94690AA5CF992309F446C0C1303CE7E7
:103D8000D30709F43FC0C3304CE7D407A9F1C115EC
:103D9000DC4709F039C01092B7030E9425129FEF4B
:103DA000E4E3FCE09150E040F040E1F700C00000A7
:103DB00081E08093E00080E28093D8001092C900F7
:103DC0008FE19EE40197F1F700C0000087E090EBDF
:103DD000DC018093110690931206A0931306B09312
:103DE000140688E19CE00FB6F894A89580936000D3
:103DF0000FBE90936000FFCF6FEF7FEF90E080E009
:103E00000E943D300E942B16F801C081D181992378
:103E100009F1CE010E94C209F82E682FCE010E943E
:103E2000320ABE018F2D0E94A0080E94BF08C82F31
:103E3000D82EF8012581368132953F70892F8295E1
:103E40008F70E82EF12C8C30E8F5F701E355FD4C2E
:103E50000C94642FCE010E94FE09F82EE2CFD92FD8
:103E6000DF70907F11F0D295D07F8C2F2223C9F084
:103E7000DD2369F090E29C0F983010F0C1110BC067
:103E80008091B703D82BD093B7030E94FE118C2FDB
:103E90000E94161517C080916B02D82BD0936B022D
:103EA000F4CF0E94EC14DD2369F0D095C05EC830D9
:103EB00010F0D1101BC08091B703D823D093B70363
:103EC0000E94FE1148E0E41AF10884E0E816F104CB
:103ED00010F40E943C0620E0F8014081518162818B
:103EE0007381848195810E94A00AEACE80916B0241
:103EF000D823D0936B02E4CF892F8F70907F9032BC
:103F000011F08295807FF1E0DF120CC0222329F0AE
:103F10003330C0F60E94E214D5CF323098F60E94BA
:103F2000D714D0CF222319F03323A1F3B0CF3323FA
:103F3000B1F3C93349F42FEF37EE43E0215030405D
:103F40004040E1F700C000008C2F0E94EC14BACF73
:103F5000892F8370A1F52111B5CF8C2F829586957D
:103F60008770880F880F4C2F4F70082E01C0440FA8
:103F70000A94EAF72C2F2071C4FF07C02FE030E02D
:103F800001C0220F8A95EAF7209596959695937031
:103F9000923081F0822F842B933030F48091EB02A9
:103FA000913029F0242B82230E94690A8BCF842B25
:103FB000822BFACF242B8091EB028227F5CF8695B6
:103FC000222311F0892F8170882309F47BCF8C2F55
:103FD000829586958770880F880F4C2F4F70082E1A
:103FE00001C0440F0A94EAF72C2F2071C4FF07C0C8
:103FF0002FE030E001C0220F8A95EAF720959695D0
:1040000096959370923081F0822F842B933030F408
:104010008091EC02913029F0242B82230E94051C10
:1040200051CF842B822BFACF242B8091EC02822754
:10403000F5CFD92FDF70222329F08D2F0E941A1C73
:104040008C2F68CF8C2F0E94D7148D2F0E940D1CAF
:1040500039CF8C2FE1EFCE1789F1EC1750F0F0EF4C
:10406000CF17B9F02223B1F1311111CF892F8F7100
:1040700029C042EFC41749F1E3EFCE13F3CF80E03C
:10408000222361F29F7181E001C0880F9A95EAF7BF
:10409000C5CF222379F0323008F014CF292F2F71A9
:1040A00081E090E001C0880F2A95EAF79091EC0238
:1040B0008927B4CF333008F005CFF0CF892F8F7127
:1040C000222321F20E941A1CFDCE892F8F712223F8
:1040D000C9F3BCCF332359F0893309F035CFFFEF53
:1040E00027EE33E0F15020403040E1F72BCF892F0D
:1040F0008F71ACCFCF93DF9380916A02807F09F0FC
:104100004DC080916902882309F448C0E0910504FC
:104110005091CC03C0916502D09164026091660217
:104120007091670247E05E17C9F18E2F90E0E49F1F
:10413000F0011124E353FC4F2481222391F1489F85
:10414000F001499FF00D1124DF01A353BC4F1196DC
:104150002C9111972C1325C02C912D1322C015964C
:104160002C91159721111DC012962D913C91261B63
:10417000370B283C3105A8F480916A028F7080616A
:1041800080936A02ED52FC4F80818F708061808342
:1041900084E692E00E94101E0E94B809DF91CF9140
:1041A0000895FC013196E770BECFA4E1B0E0EBEDDD
:1041B000F0E20C94E42E8C0186E0F801DE011F96FB
:1041C00001900D928A95E1F7F8018481E58094E6EB
:1041D000A92E92E0B92E90916802911128C08823EF
:1041E00019F1EE20F1F0C8010E946C0AF82E882324
:1041F000C1F087E0F801D50101900D928A95E1F7B1
:1042000080916802813031F480916402909165025E
:104210000E94F1090E947A208F2D6496ECE00C94A4
:10422000002FC8010E94101EFF24F394F5CFD08008
:10423000C18082809380F090690220916602309163
:104240006702A401421B530BFF2009F4D9C0483C6C
:10425000510508F092C08823F9F29091650280918F
:104260006A02282F207F09F056C0C91214C090910D
:104270006402D91210C0E11048C08F708061809331
:104280006A0284E692E00E94101E80916A02F801A0
:104290008683F12CC1CFE11038C06C2D8D2D0E948A
:1042A00096046C2D8D2D0E949604E82E8111F1CF7D
:1042B000DF86C88A8F8598890E94F109292F229567
:1042C0002F70243058F49F70223088F0992399F091
:1042D000F8019681907F79F4FE2C9ECF2A5F2F7093
:1042E000223068F0C8010E94101EEF2CF5CF9923F0
:1042F00011F0882389F3805E883070F3F3CF803F1C
:1043000058F3815F833070F7E7CF80916A02816054
:1043100080936A02BECFC91207C090916402D9127D
:1043200003C0EE2009F48DC0C8010E946C0A8823E6
:1043300009F477CFEE2009F474CF80916A028032BD
:1043400088F02091640230916502398728879B8626
:104350008A86909168029C871D868E87CE0108967A
:104360000E94101E87E0F801A4E6B2E001900D92D1
:104370008A95E1F70E947A2057CF90916A02292FFF
:10438000207F51F484E692E00E94101E87E0F50140
:1043900011928A95E9F77DCF882309F43DCF80916A
:1043A00065028C1110C080916402D8120CC0E1101B
:1043B0000AC09683C8010E94101E87E0F501119281
:1043C0008A95E9F729CFC8010E946C0A882309F46D
:1043D00028CFEE2009F425CF80916A02803210F2B6
:1043E00020916402309165023A8329839C828B82FA
:1043F000909168029D831E828F83CE010196B0CF7B
:10440000483C5105D0F6882309F40ECFFE2CEE204F
:1044100009F407CF809165028C1120C0809164025D
:10442000D8121CC080916A0280FD0FC0982F907F27
:1044300061F08683903F31F0982F907F905F8F706E
:10444000892B8683C8010E94101E87E0F801A4E62C
:10445000B2E001900D928A95E1F7DECEC8010E948C
:104460006C0A81117FCF80916A02816080936A0219
:10447000C8010E94101ED0CEABE1B0E0E2E4F2E24F
:104480000C94EC2E4E8B5F8B688F798F8A8F9B8F6D
:10449000192F911110926B021D8A86E0FE0176960B
:1044A000DE011F9601900D928A95E1F70A8D002397
:1044B00041F021E04F85588969897A89C8010E94B5
:1044C000A00A0B8B1C8B87E0FE013F96DE0118963D
:1044D00001900D928A95E1F7CE0108960E94D520B1
:1044E00081110CC087E0FE013896DE011196019023
:1044F0000D928A95E1F78C8581110BC017E08091B0
:1045000005049091CC03891333C06B96E4E00C94BE
:10451000082F2091CC0330E0C901019687709927BC
:10452000409105044817190699F097E0929FD00131
:10453000939FB00D1124A353BC4FFE0131960190FF
:104540000D929A95E1F78093CC030E94B809D6CFDB
:104550001092B7030E9425121092CC03109205040A
:1045600087E0E4E6F2E0DF011D928A95E9F7C6CF25
:10457000819FC001112483539C4F0E94D520882322
:1045800021F28091050490E001968770992780932D
:104590000504B5CFA6E0B0E0E0EDF2E20C94EC2E1D
:1045A0000E94801A8C01809174029091750280178C
:1045B000910781F019821A820E94801A682F49811E
:1045C0005A81792F80E090E00E943C22109375027E
:1045D000009374022696E4E00C94082F1F921FB6F5
:1045E0001F9211248F939F93AF93BF938091B10338
:1045F000811113C08091B2039091B303A091B403D1
:10460000B091B5034196A11DB11D8093B203909363
:10461000B303A093B403B093B503BF91AF919F913F
:104620008F911F901FBE1F901895CDB7DEB72F97A3
:104630000FB6F894DEBF0FBECDBF85B7806885BFCB
:1046400085B7806885BF84B7877F84BF0FB6F8942D
:10465000A89580916000886180936000109260004E
:104660000FBE80E890E00FB6F894809361009093BD
:1046700061000FBE81E0809363018DE497E0909329
:104680002902809328020E94E7040E940605809177
:10469000E20084608093E20078948091CB038823C9
:1046A000A1F01091E9001F709091EC00892F8170AA
:1046B00090FD80E8182B1092E9008091E80083FDBE
:1046C0000E9431121F701093E90082E084BD93E0D4
:1046D00095BD9AEF97BD80936E001092DB02109209
:1046E000DC021092DD021092DE028091D80080611F
:1046F0008093D8002AE12A95F1F700C08091D90073
:10470000182F117080FD04C00E94E7041092CB03A3
:104710001093AD031093AE031093020111110E9488
:10472000682D809102018091020195E0811190E055
:104730009093EA0285E0891B8093E90209EE11E07B
:104740002EEEE22E21E0F22ED8018D918D018F3FC9
:1047500011F00E947E07E016F106B1F70EEE11E0AF
:1047600094EFE92E91E0F92EF80181918F018F3FAE
:1047700011F00E947E07E016F106B1F78AE0E0EF43
:10478000F2E0DF01282F1D922A95E9F7EFEDF2E024
:10479000DF011D928A95E9F790E080E00E940930E0
:1047A000853E9E4F09F45EC065EE7EEF90E080E0AE
:1047B0000E943D3060E082E090E00E941F3081E086
:1047C0008093EB0261E083E090E00E941F3060E0A4
:1047D00074E184E090E00E943D3060E086E090E08B
:1047E0000E941F3060E087E090E00E941F3040E0B0
:1047F00050E0BA0188E090E00E94313060E083E24E
:1048000090E00E941F3060E08CE090E00E941F303A
:1048100060E08DE090E00E941F3019821A821B82B6
:104820001C821D821E821F82188648E050E067E1CC
:1048300070E0CE0101960E940F3040E050E0BA01D6
:104840008FE190E00E94313040E050E0BA018FE00B
:1048500090E00E94313040E050E0BA0183E190E006
:104860000E94313082E090E00E94FB2F8093FA0298
:1048700084E090E00E9409309093EE028093ED0274
:1048800083E090E00E94FB2F0E94690A8091EC0275
:104890000E94EE1B83E08093720380E28093060403
:1048A0000E94062C6BE070E08BE292E00E944316BF
:1048B000882359F18091720365E070E081FD27C182
:1048C00086E292E00E9443168823F9F06DE070E0E2
:1048D00084E192E00E9443168823B9F00E942D06DD
:1048E000605A75418F4F9F4F609383037093840389
:1048F00080938503909386030E94201181E080932A
:10490000880380938703109273038091EF028111D3
:104910007EC088E090E00E9403304B015C0183E29E
:1049200090E00E94FB2F282F30E040E050E060E054
:1049300070E080E090E000E20E94752F282939297C
:104940004A295B2920937B0330937C0340937D03AA
:1049500050937E0360937F03709380038093810361
:10496000909382032C7F09F042C025E020937B03C3
:1049700010927C032FEF20937D0320937E031092EF
:104980007F0325E030E04FEF5FEF60E00E94931679
:1049900088E090E00E9403306B017C0183E290E0AC
:1049A0000E94FB2F282F30E040E050E060E070E0F4
:1049B00080E090E00E94752FB22FA32FF42FE52FF7
:1049C0005B0197018601BC29A12BFE29E32BB09343
:1049D0007B03A0937C03F0937D03E0937E036093BD
:1049E0007F03B092800380938103909382030E949F
:1049F0003E070E946E0680917B0380FF05C060E049
:104A0000869586950E94F41781E08093EF0280914D
:104A1000AD03811102C00E946B2D8AE09EE190934C
:104A20005F0180935E018EE090E090935A01809345
:104A300059018EE290E090935D0180935C0183E0E8
:104A400091E09093B0038093AF038091CB038530C6
:104A500079F410E400E182E1F82E8091CB038530F7
:104A600009F458C01092B7030E9425120E943C0618
:104A70000E948C1ABBEFEB2EB2E0FB2E10EFC12E82
:104A800012E0D12E25E033E0D601F70191918D910E
:104A90002E173F0709F474C09817C1F38090AD0337
:104AA00010E0D6010D916D01F70191907F019016F4
:104AB00031F19026B12CAA24A394892D8A21B9F032
:104AC0008820A9F0B9821A830E94801A9C838B8364
:104AD000F1E0FD8391E0802F8A2109F490E09E832C
:104AE00049815A816B817C818D810E943C22B394E3
:104AF000AA0C26E0B212E1CFF701319700831F5FC5
:104B00001A3079F60E949507332433943EC081E22F
:104B100092E0D8CE8091CB03843029F10E945016C8
:104B20001092B103E8E1F0E00FB6F894A895E09395
:104B300060000FBE1093600083B7817F846083BFE5
:104B400083B7816083BF7894889583B78E7F83BF56
:104B50000FB6F894A89580916000886180936000FA
:104B6000109260000FBE0E948C1AE0EFF2E081917B
:104B70008111DDC58AEF92E08E179F07C1F76DCFD7
:104B800098138CCF0E94CA22312C809188038823ED
:104B9000D1F180917403909175030E94711AC297AC
:104BA00090F00E94801A909375038093740360E0E4
:104BB00080E00E9410070E945F10F82E82E0F81239
:104BC00088C00E9450168091070490910804892B98
:104BD00009F0CCC4809187038823A9F00E942D0698
:104BE0000091830310918403209185033091860303
:104BF000601B710B820B930B6F3F7F4F8F4F9F4753
:104C000010F40E94501631100E946B160E943C0650
:104C100090917603891721F0809376030E942D06E8
:104C20008091AD03882309F410CF80917A03882303
:104C300009F40BCF87E08D87909177039A3008F0C5
:104C400004CF1A8619868A8712E01B871C8663E0C8
:104C500070E0CE010A960E944D06898710934001AC
:104C60001092530110E000E030E020E044E050E01A
:104C7000BE01675F7F4F83E00E942818882309F4F4
:104C8000E4CE30E020E042E050E068E773E084E00A
:104C90000E942818882309F4D8CE30E020E041E0B3
:104CA00050E0BE01635F7F4F85E00E942818882393
:104CB00009F4CBCE30E020E050E040E070E060E06E
:104CC00086E00E942818882309F4BFCE10927A0348
:104CD000BCCE0E946B1694E0F91279C100910703D3
:104CE000023858F0109207030E9420110E942011F0
:104CF0000E945E1D0E94C71066CF809105039091AF
:104D000006030E94711A099708F45DCF0E94801A69
:104D10009093060380930503073308F0BBC04AE66F
:104D200051E065E080E00E94671540E751E067E0F0
:104D300080E00E946715802F877046E751E085303C
:104D400010F449E751E06CE080E00E946715003103
:104D5000A0F1602F70E090E080E00E946F3120E0D1
:104D600030E040E751E40E94533020E030E040EA78
:104D700050E40E941F3220E030E0A9010E9454302C
:104D80000E9437316B01AB01445C5F4F69E681E003
:104D90000E94E3115601A4E1AA0EB11CA5016EE622
:104DA00082E00E94E311A60169E683E00E94E3111C
:104DB000A50164E784E00E94E311043208F458C0BE
:104DC000602F70E090E080E00E946F3120E030E0E2
:104DD0004CE052E40E94533025E535E545ED50E4C2
:104DE0000E941F3220E030E0A9010E9454300E944E
:104DF0003731072E000C880B990B0E946F3120E091
:104E000030E048EC52E40E94C5306B017C01AC01FB
:104E10009B010E941F32A70196010E941F324B0185
:104E20005C0140E268E780E00E94F60DA501940174
:104E3000C701B6010E941F3220E030E048EC52E486
:104E40000E941F320E9437316536710514F064E606
:104E500070E02AE1269FC001279F900D112464E68F
:104E600070E00E94312F6B0110E01C151D0434F01E
:104E7000809107038F5F80930703A5CEEE24E39410
:104E800001E020E041E06BE783E0810F0E94D80C55
:104E90001F5FEBCF89EC800F893108F04BC0F82EF3
:104EA000FF0C8F2D65E00E94252FF80EBEE0C12C6F
:104EB000BF1528F4F2EFCF2ECF0CAEE0FA2E0E94F1
:104EC00020110C2D10E0000F111F0C501E4FEC2C68
:104ED000EE0CEE0CD12CE3E0BE2EDF1449F28C2D4B
:104EE0008D0D833168F4F801408151816D2D80E092
:104EF0000E946715D3940E5F1F4FF4E0EF0EEDCFC5
:104F00006B2D0E94252F44E651E0992379F384EB21
:104F10008E0D80930E0185EB8E0D80930F0186EB35
:104F20008E0D8093100187EB8E0D809311014DE063
:104F300051E0DCCF10EB100F21F01A3011F01E31D0
:104F400011F40E94201160E070E0CB011A3098F15A
:104F50001E3158F00E94201162E9600F653008F0A0
:104F600064E080E30E942F0F83CF0E94140F6B0137
:104F70007C01612F70E090E080E00E946F3120E0C2
:104F800030E040E251E40E94533020E030E040EA5B
:104F900050E40E941F3220E030E0A9010E9454300A
:104FA0000E94373104E610E0061B170B101611069D
:104FB0002CF0C701B6010E94660E5ACF0E94140F52
:104FC000C622D722E822F9220A501109EFCF25E0A4
:104FD000F2126FC080910803909109030E94711A28
:104FE000C89708F4F0CD0E94801A9093090380932B
:104FF0000803F12CE12C03E010E067018FE1C80EFB
:10500000D11C0032110540F445E56DEF7FEFC7017B
:10501000800F911F0E94C50B4AEA63E070E0C60151
:10502000801B910B0E94C50B0F5F1F4F03321105B0
:1050300041F790E2E90EF11CE114A2E0FA06D9F67C
:1050400026E0222E34E1A32EB12C4AE0642E712CEE
:1050500050E8852E912C6CE1462E512C0E94C00FF9
:105060007C010E94C00F6C010E94C00FB5010E941C
:10507000312F8C010A501109C601B3010E94312F52
:1050800023E0280FC701B5010E94312F47E0480FE8
:10509000C601B4010E94312F382FC701B2010E940E
:1050A000312F632F8C5F0E94EA0B2A942110D6CFF8
:1050B0008ACDB1E0FB1215C00E943A109BE0C92EC8
:1050C000E82E06E910E020E04AE053E062E171E0FA
:1050D0008BE093E00E94DC0F80910A03843008F09B
:1050E0007AC160E870E086E392E00E94700665E0B5
:1050F00080E00E94100760E670E086EB92E00E947C
:10510000700621E049E167E282E00E94CB0D109138
:10511000150100911401101709F46EC0809112035B
:10512000909113030E94711A039760F00E94801AF5
:105130009093130380931203101708F0CFC11F5FE1
:105140001093150100E024E14AE16AE283E00E9445
:105150001F0E20E04CE06EE381E10E94CB0D109128
:105160001501110F110F87E0C82EEE24EA942AE0F2
:10517000412F6AE283E00E94C50AE12C0FEF26E08E
:10518000412F69E38EE1811B0E94C50A20E046E1C0
:105190006EE283E00E94CB0D20E047E16FE283E006
:1051A0000E94CB0D00E022E048E167E383E00E942B
:1051B0001F0E27E043E060E388E10E941F0E22E01B
:1051C0004CE06CE383E00E941F0E40E06DE38FE053
:1051D0000E94B00620E043E06EE38EE00E94CB0D1B
:1051E00020E043E06EE38EE00E94CB0D21E04BE037
:1051F0006EE383E00E94CB0DF2E086E691E0FF15BE
:1052000048F4E0911103F0E0EE0FFF1FE65EFD4F62
:10521000808191819093100380930F0340910F033D
:105220005091100366E081E00E94671568E080E01D
:105230000E94100760E470E086E193E00E9470062F
:1052400080911403909115030E94711A64E670E036
:10525000813D27E0920758F444E6489F9001499F1A
:10526000300D1124C90160ED77E00E94CA2E8091B3
:105270001A0390911B03861B970B181619060CF046
:105280002FC190931B0380931A0380911603909172
:1052900017030E94711A893E934070F10E94801A90
:1052A000909317038093160300911803109119032C
:1052B00066277727601B710B072E000C880B990B54
:1052C0000E946F3127EA39E747E45DE30E941F320D
:1052D0004B015C01B801110F880B990B0E946F31D3
:1052E0009B01AC01C501B4010E9454300E943731CA
:1052F00070931903609318038091500390915103A8
:105300000E94711A899708F45ECC0E94801A9093CB
:10531000510380935003B6E3CB2EB3E0DB2E1CE1A8
:10532000A12E13E0B12ED501F60181818193119652
:105330008C9111978D9323E0EF34F207B1F74091F0
:105340001A03209118033091190368E270E02115C7
:10535000310541F0609116017091170162177307D2
:105360000CF4B901709317016093160154E6529F33
:10537000C001539F900D11240E94312F40934F0381
:10538000CB016536710514F084E690E08093350317
:10539000E6E3F3E029E130E0ACE98A2E99249A941F
:1053A00041918F0101501109C901959587958E5F33
:1053B000849FC0011124B4010E94312F460FD801EF
:1053C0004C93215031092530310551F7F1108DC032
:1053D0000E94261CF8CBECEFE80FE73008F087CEF0
:1053E000F0E0E754FD4C0C94642F05E010E023E05E
:1053F00048E16BE081E00E94EA0B04E010E023E06A
:105400004EE063E182E00E94EA0B24E047E066E1BF
:1054100089E00E94EA0B6BCE04E010E027E044E153
:1054200069E186E00E94EA0B07E010E028E040E234
:1054300068E080E0EECF0DEF1FEF24E04BE167E086
:1054400083E00E94EA0B0CEF1FEF24E043E167E1E9
:105450008DE0DFCF883079F010E000E0C8010E94D5
:10546000BA0BB80180950E94EC060F5F1F4F003801
:105470001105A1F73CCE01E010E0003879F045E5D8
:105480006FEF7FEFC8010E94C50B4AEA61E070E050
:105490008FE790E0801B910B0E94C50B0F5F1F4FA1
:1054A0000138110551F723CEE12C04E610E00E94EB
:1054B000C00FB8010E94312F499734F421E040E237
:1054C0006E2D80E00E94CB0DE394E0E2EE12EFCF70
:1054D0000ECE60E080E00E942F0F09CE115030CE3A
:1054E00010921B0310921A03D0CEB1E0FB1204C03D
:1054F00089E0809318016CCF6AE080E00E94100779
:1055000060EC70E086E593E00E94700613E05AE0DC
:10551000652E712C66EF862E99249A94F601F190EF
:105520006F01F4E0FF9EC0011124B3010E94312FEE
:10553000462FE12C00E020E06CE7812F0E94D80C80
:10554000D5018D915D0141E0F81608F440E0B4E02A
:105550008B9FC0011124B4010E94312F6458812F08
:105560000E94B0061F5F1D31C9F62DCB80918803C4
:10557000882309F42FCB8091730381112BCB0E94D8
:105580006B1620910704309108042115310509F4A8
:1055900021CB80E041E050E0082F10E07A01082E96
:1055A00002C0EE0CFF1C0A94E2F7B70162237323DA
:1055B000672B11F48F5FF0CF9091720390FF9EC024
:1055C000880F880F880F80931B0110921E01895F3E
:1055D00080931C0183E080931F0124E630E047E0C4
:1055E00050E069E171E088E70E943A2C892B09F0CC
:1055F000F1CAA80125E0440F551F2A95E1F78091D3
:10560000720380FF8DC0E2E5F3E080E2DF011D92CE
:105610008A95E9F7E4E2F2E0FF87EE8700E212E024
:1056200088E2682E82E0782E97E0A92E9924939440
:10563000AE85BF852D91BF87AE87F80141908F0160
:10564000440E552E511CC201875F9B4F2C01E22F47
:10565000F0E0EE5AFC4F30E020E02A2C221AB92C60
:10566000022E01C0BB0C0A94EAF7620190E0D60159
:105670008D916D018B21622D691B6770862E062E20
:10568000000C770BB82F01C0BB0F8A94EAF78B2E62
:105690007195619571096770772701C086956A9544
:1056A000EAF7882A8081882A80829F5F9830F9F6FD
:1056B0002F5F3F4F31962830310579F6EE85FF8513
:1056C0006E167F0609F0B4CF04E610E020E230E069
:1056D00042E553E060E488E70E94C42C892B09F07E
:1056E00079CAE094F0948091070490910804E8222C
:1056F000F922F0920804E09207046CCA8295880FA0
:10570000807680931B0198013695279536952795CD
:1057100020931E01815E80931C0120931F015DCFA9
:10572000475F5B4F04E610E020E230E0D3CF80918A
:10573000C103882309F491C909BDF9BC09B400FE6D
:10574000FDCF8091D8008F7D8093D8008091E000BC
:1057500082608093E0008091E00081FDFCCF109298
:10576000B7030E94251279C9EF92FF920F931F93FE
:10577000CF93DF93182FEB011092BC0084EA809343
:10578000BC000E94801A7C018091BC0087FF27C06A
:105790008091B900887F883029F08091B900887F96
:1057A000803189F51093BB0084E88093BC000E948F
:1057B000801A8C018091BC0087FF1EC02091B90027
:1057C000287F90E080E0283191F081E090E0203463
:1057D00011F490E080E091958195910908C0C7018E
:1057E0000E94711AC817D90778F68EEF9FEFCDB7D0
:1057F000DEB7E6E00C94062FC8010E94711AC817A4
:10580000D907C0F6F2CF8FEF9FEFF1CF1092B9001A
:105810008CE08093B80008950F931F93CF93DF938C
:10582000EB018093BB0084E88093BC000E94801A47
:105830008C018091BC0087FF11C02091B900287FA6
:1058400081E090E0283211F490E080E0919581951C
:105850009109DF91CF911F910F910895CF3FDC0700
:1058600041F3C8010E94711AC817D90710F78EEFCB
:105870009FEFEFCFB0E0A0E0E0E4FCE20C94E32E79
:10588000782E5B016A0189010E94801A4C01C1E0F7
:10589000D0E00431110558F0C5E0D0E00F3F10070B
:1058A00031F0C80164E170E00E94CA2EEB01BE0134
:1058B000872D0E94B42B7C0197FF09C00F3F100772
:1058C000B1F3C4010E94711A0817190780F7E501A6
:1058D000CA0CDB1CCC15DD0511F0F7FE09C084E90C
:1058E0008093BC00C701CDB7DEB7EDE00C94FF2E6E
:1058F000B80189910E940C2C7C01ECCFB0E0A0E0B3
:10590000E4E8FCE20C94E32E782E5B016A01890145
:105910000E94801A4C01C1E0D0E00431110558F01A
:10592000C5E0D0E00F3F100731F0C80164E170E03E
:105930000E94CA2EEB01BE01872D0E94B42B7C0170
:1059400097FF09C00F3F1007B1F3C4010E94711AFD
:105950000817190780F7E501CA0CDB1CCC15DD051B
:1059600011F0F7FE09C084E98093BC00C701CDB7F0
:10597000DEB7EDE00C94FF2EFE018491B8010E9489
:105980000C2C7C012196EACFB0E0A0E0EAECFCE22E
:105990000C94E22E682E762E5A0169010E94801A1C
:1059A0004C01C1E0D0E00431110558F0C5E0D0E071
:1059B0000F3F100731F0C80164E170E00E94CA2E69
:1059C000EB01BE01862D0E94B42B7C0197FF1DC008
:1059D0000F3F1007B1F3C4010E94711A081719078D
:1059E00080F784E98093BC00C701CDB7DEB7EEE055
:1059F0000C94FE2EB80189910E940C2C7C01CC16CF
:105A0000DD0679F3F7FEF6CFECCFB801872D0E94C3
:105A10000C2C7C01E501CA0CDB1CF1CF8EE14A9B0A
:105A200002C08150E1F74A9BFECF08955A9880E268
:105A30008A95F1F75A9A0895FC013BE03A95F1F7FF
:105A400098E020E080E031E040E14A95F1F7880FEE
:105A50004A9B02C08160232742E04A95F1F700008B
:105A600040E14A95F1F7915079F790E19A95F1F775
:105A700099B132E03A95F1F7000040E14A95F1F72B
:105A800092FB992790F992272081920F9083089595
:105A9000A1E0B0E0EEE4FDE20C94EA2E19828C0164
:105AA0007C01E60EF11C0E151F0541F481E0998181
:105AB000911180E02196E6E00C94062F0E940E2DB5
:105AC000CE0101960E941C2DF80181938F01EBCF2E
:105AD000529A5A9A089552985A9AEA9AE9E6F0E048
