:100000000C94AA050C94E2050C94E2050C94782F4C
:100010000C94E2050C94E2050C94E2050C94E205C4
:100020000C94E2050C94E2050C94061D0C94C21C81
:100030000C94D7250C94E2050C94E2050C94E2058F
:100040000C94E2050C94E2050C94E2050C94E20594
:100050000C94E2050C94EC1D0C94E2050C94E20562
:100060000C94E2050C94E2050C94E2050C94E20574
:100070000C94E2050C94E2050C94E2050C94E20564
:100080000C94E2050C94E2050C94E2050C94E20554
:100090000C94E2050C94E2050C94E2050C94E20544
:1000A0000C94E2050C94E2050C94E2057FC080807C
:1000B0008080808080808080808080808080808040
:1000C00080808080808080808080C07FF00804E213
:1000D000F1F87C3C3C3C3C3C3C3C3C3C3C3C3C3CAF
:1000E0003C3C3C3C3C3C3C3C3800013EFF0000FFBB
:1000F000FF00000000000000000000000000000001
:1001000000000000000000001C1C1C00FF00007F1D
:100110007F46467E46467E46467E7E3E1E8E4E4E3E
:100120004E4E4E4E4E4E4E4E4E40403E010272726C
:1001300002027272020272720202020201000000E6
:1001400080404040404040404040800000808383E9
:100150008488B38384B88383BC80808080808080DF
:100160008F9095909590959095908F00C020100855
:100170000404040202020201010101010101010162
:100180000102020202040404081020C00304081043
:10019000202020404040408080808080808080807F
:1001A0008040404040202020100804038040202050
:1001B0001010101010080808080808080808080897
:1001C00008080810101010102020408000010202C2
:1001D00004040404040808080808080808080808B3
:1001E000080808040404040402020100F8C0808026
:1001F00080808080800000800000000000000000FF
:1002000080000080808080808080C0F80F01000026
:1002100000000000000000000000000000000000DE
:1002200000000000000000000000010FFFF08080CF
:1002300000808000008080000000000000000000BE
:1002400000808000008080008080F8FFFF070000B1
:10025000000000000000000000000000000000009E
:100260000000000000000000000007FF2020202008
:100270004142434445464748494A4B4C4D4E4F50F6
:100280005152535455565758595A313233343536E2
:100290003738393052454254202020202020203B3E
:1002A00027202C2E2F20202000000000000000001E
:1002B00000000000350214001A00080015001700A5
:1002C000E10004001600070009000A00E2001D001A
:1002D0001B0006001900050000000000E300215289
:1002E0002C000000000000000000000000000000E2
:1002F0002D00130012000C0018001C003400330005
:100300000F000E000D000B002800380037003600EB
:1003100010001100000000002A002252E40000003A
:10032000000000000000000000000000000050007D
:10033000510052004F00000000001E001F0020006E
:10034000210022000000000000000000000000006A
:10035000000000000000000000000000000000009D
:10036000000000000000000000000000000000008D
:1003700000000000000027002600250024002300C4
:10038000000000000000000000000000000000006D
:10039000000000002B000000000000000000000032
:1003A0000000000035002F0030002F023002000056
:1003B00050001E021F022002210222020000000043
:1003C000000000000000000000000000000000002D
:1003D00029000000000000000000000000000000F4
:1003E0002E02310037022E00360231024F00270262
:1003F0002602250224022302000000000000000063
:1004000000000000000000000000000000000000EC
:1004100000DA0281FFD9F1DB20A4A62EAF00A0C034
:10042000D30000A1C8D30000AED580A81F408D1412
:100430002000000000000000808000008080C0C01C
:10044000CCDEDECCC0C08000000080800000000058
:100450000000C0F0F81C0E0703F9FCFF0F0703E1D2
:10046000F1F1F1F1E103070FFFFCF903070E1CF8AE
:10047000F0C0C0E3E7CE1C3870630F1F3C78F0E19A
:10048000E30303E3E1F0783C1F0F6770381CCEE70D
:10049000E3C0000101000000387860C0C0C0607F88
:1004A0003F00003F7F60C0C0C0607838000000019E
:1004B0000100000000C0201008080402020201012F
:1004C0000101010101010202020408081020C0001C
:1004D0000000F00E0100000000000000000000001D
:1004E000000000000000000000000000000000818B
:1004F000EEF00F708000000000000000000000001F
:1005000000000000000000000000000080C0F0FFBC
:100510007F0F00000003040810102040404080803E
:10052000C0C0E0E0E0F070787C3C1E1E0F070300C6
:100530000000000000C020100808040202020101AF
:1005400001010101010102020204080830E0C000BB
:100550000000F00E0100000000000000000000009C
:100560000000000000000000000000000001FFFF8C
:10057000FEF00F708000000000000000000000008E
:100580000000000000008080C0E0F0F8F8FEFFFFEF
:100590007F0F00000003070F1F1E3E7E7E7EFEFEC3
:1005A000FEFEFEFFFFFF7F7F7F3F1F1F0F07030041
:1005B0000000000000C0201008080402020201012F
:1005C0000101030FFFFFFEFEFEFCF8F8F0E0C000A3
:1005D0000000F00E0100000000000000000000809C
:1005E00080C0F0F8FFFFFFFFFFFFFFFFFFFFFFFFEF
:1005F000FEF00F7EFCF8F8F8F8F8FCFCFEFEFFFFBA
:10060000FFFFFFFFFF7F3F1F0F0707030303078F56
:100610007F0F00000003070F1F1F3F7F7F7FFFFF3B
:10062000FFFFFFFFC380404040201010080403007C
:100630000000000000C0E0F0F8F87C3E1E0E0F073E
:100640000703030301010202020408081020C0008E
:100650000000F0FEFF1F0F0301000000000000007B
:100660000000000000000000000000000000000189
:100670000EF00F738000000000000000000000007A
:1006800000000000000000000000000000000080EA
:10069000700F0000000304081010204040408080CC
:1006A000808080808080404040201010080403003B
:1006B0000000000101010101010101010202020229
:1006C00002020202020303030303030303040404FC
:1006D00004040404050505050506060606060707C5
:1006E00007070708080808090909090A0A0A0B0B7D
:1006F0000B0C0C0C0D0D0D0E0E0E0F0F0F1010111C
:1007000011111212131314141515161617171818A1
:1007100019191A1A1B1B1C1D1D1E1E1F2020212209
:1007200022232424252626272829292A2B2C2D2D4F
:100730002E2F30313232333435363738393A3B3C6C
:100740003D3E3F404142434445464748494A4C4D5F
:100750004E4F50515354555658595A5B5D5E5F6128
:100760006264656668696B6C6D6F707273757778BB
:100770007A7B7D7E8082838587888A8C8E8F919319
:100780009596989A9C9EA0A2A3A5A7A9ABADAFB140
:10079000B3B5B7BABCBEC0C2C4C6C9CBCDCFD1D425
:1007A000D6D8DBDDDFE2E4E7E9EBEEF0F3F5F8FACB
:1007B000FDFF00AF00AE05010906A101050719E024
:1007C00029E7150025019508750181029501750835
:1007D00081010507190029FF150026FF0095067500
:1007E00008810005081901290515002501950575E1
:1007F000019102950175039101C0090222000101D6
:1008000000A0FA09040000010301010009211101FF
:1008100000012244000705810308000112010002C3
:1008200000000008D8042DEB0001010200010E03B6
:100830004C0069006C00790035003800000010039E
:100840006C0069006C00690075006D0073000000A9
:1008500004030904000000000000423A12120E00D6
:100860000C4447241C002424147F0400423F02222D
:100870001E000A0A7F0A0A00024742221F002115B1
:100880000915630044443F040400221A027F120049
:100890002222120A0600084742221E00105254303B
:1008A0001600403A023E42005E5252525E00042759
:1008B00044443C000000000000007700770077000F
:1008C00014227F2214005F5F005F5F0006097F0132
:1008D0007F00006689956A0060606060600094A295
:1008E000FFA2940008047E04080010207E2010005F
:1008F00000000000000000000000000000000000F8
:100900000000001C1C1C000000081C080000000067
:100910000800000000000000000000005F00000070
:10092000000700070000147F147F1400242A7F2A88
:100930001200231308646200364956205000000854
:1009400007030000001C224100000041221C00009F
:100950002A1C7F1C2A0008083E080800008070300E
:10096000000008080808080000006060000020106F
:10097000080402003E5149453E0000427F4000000D
:100980007249494946002141494D33001814127FEC
:1009900010002745454539003C4A4949310041216D
:1009A00011090700364949493600464949291E00C0
:1009B0000000140000000040340000000008142271
:1009C0004100141414141400004122140800020100
:1009D000590906003E415D594E007C1211127C00FF
:1009E0007F49494936003E41414122007F41414112
:1009F0003E007F49494941007F09090901003E4104
:100A0000415173007F0808087F0000417F410000CA
:100A10002040413F01007F08142241007F404040B8
:100A200040007F021C027F007F0408107F003E41CF
:100A300041413E007F09090906003E4151215E0007
:100A40007F091929460026494949320003017F01DF
:100A500003003F4040403F001F2040201F003F4018
:100A600038403F0063140814630003047804030053
:100A70006159494D4300007F414141000204081083
:100A80002000004141417F00040201020400404077
:100A90004040400000030708000020545478400004
:100AA0007F284444380038444444280038444428CB
:100AB0007F0038545454180000087E09020018249E
:100AC000241C78007F080404780000447D40000066
:100AD0002040403D00007F102844000000417F403E
:100AE00000007C04780478007C0804047800384412
:100AF000444438007C1824241800182424187C004E
:100B00007C080404080048545454240004043F445E
:100B100024003C4040207C001C2040201C003C4025
:100B200030403C004428102844004C9090907C00B9
:100B30004464544C44000008364100000000770033
:100B400000000041360800000201020402003C26B9
:100B500023263C0011241FBECFEFDAE0DEBFCDBF5D
:100B600004B603FE18C08091EA059091EB05A091B0
:100B7000EC05B091ED058730904BA740B04B59F490
:100B80001092EA051092EB051092EC051092ED051B
:100B9000E0E0F8E3099512E0A0E0B1E0ECE2F8E66D
:100BA00002C005900D92AC33B107D9F725E0ACE354
:100BB000B2E001C01D92AA3EB207E1F70E94FE25F5
:100BC0000C94EC330C940000482F2091DE0390919C
:100BD000A50357E0291302C080E0089530E0529F3A
:100BE000F001539FF00D1124EA55FC4F81816813E9
:100BF00006C08081481303C085818111EECF2F5F2D
:100C00003F4F2770E7CF982F9093E900891779F02D
:100C10005091EC002091ED004091F00021FD0AC0C0
:100C20009F5F973089F78093E90081E00895562F00
:100C300040E022E03091EB003E7F3093EB003091BA
:100C4000ED003D7F3093ED003091EB00316030934B
:100C5000EB005093EC002093ED004093F0002091C6
:100C6000EE0027FDDDCF80E00895E8EDF0E0808123
:100C70008E7F80831092E2001092DA001092E100E1
:100C8000A0EEB0E08C9181608C9380818F7780831F
:100C900019BCA7EDB0E08C918E7F8C9380818F7E04
:100CA000808310928F030895B0E0A0E0EAE5F6E0BB
:100CB0000C94B230C8EDD0E088818F7E8883E7ED58
:100CC000F0E080818160808384E082BF81E0809356
:100CD0008F0388818E7F888302EE10E0F8011082F6
:100CE0001092DA0081EEC82ED12CF6011082888194
:100CF0008F77888388818068888388818F7D8883C7
:100D000019BC1092A40310929B0310929A031092A4
:100D1000990390EEE92EF12CF70180818B7F80837F
:100D200088818160888360E080E00E940306F6018C
:100D300080818E7F8083F8018081816080838081C3
:100D400088608083F70180818E7F808388818061C5
:100D50008883CDB7DEB7E8E00C94CE302091E40074
:100D60003091E50095E6A9012091EC00822F817079
:100D700020FF06C08091E80080FF06C080E0089553
:100D80002091E80022FD1AC08091A403882389F0F5
:100D9000853089F08091EB0085FD0FC02091E40043
:100DA0003091E50042175307F9F29150E1F684E0E3
:100DB000089582E0089583E0089581E00895809188
:100DC0009C0387FF13C08091E80082FF06C08091DA
:100DD000E8008B778093E80004C08091A403811120
:100DE000F2CF08958091A4038823D9F38091E8007D
:100DF00080FFF8CF8091E8008E77ECCFFC018091E6
:100E0000A2039091A30386179707A0F061157105BF
:100E100029F49091E8009E779093E80090E06115A6
:100E2000710551F4911108C08091E80082FF34C02F
:100E300080E00895BC01F2CF8091A4038823C1F122
:100E40008530C1F18091E80083FD30C08091E800D9
:100E500082FDEACF8091E80080FFE1CF8091F3002E
:100E60002091F200382F6115710519F028303105F5
:100E700058F091E02830310509F090E02091E80029
:100E80002E772093E800CBCF81918093F1006150C1
:100E900071092F5F3F4FE7CF8091A403882341F072
:100EA000853041F08091E80083FFBECF81E0089556
:100EB00082E0089583E00895089508950895CF92FB
:100EC000DF92EF92FF922FB7F894C0908B03D090EF
:100ED0008C03E0908D03F0908E032FBFA701960145
:100EE000261B370B480B590BCA01B901FF90EF9035
:100EF000DF90CF9008952FB7F89460918B03709195
:100F00008C0380918D0390918E032FBF0895809163
:100F1000A101089580918603882359F0E091880308
:100F2000F0918903309729F00190F081E02D099527
:100F3000089580E00895FC01680F791F8FEF91E319
:100F40002191822728E030E087FF09C0880F892798
:100F500021503109C9F7E617F70791F70895880F6F
:100F6000F7CFFC01EE0FFF1FE80FF91FEE59FC4F02
:100F70006183408322830895539A0895CF93DF932A
:100F80002091E8053091E905225E3340A901460F22
:100F9000571F4130524020F060E072E0621B730B3B
:100FA0004091E0035091E103FC01C901620F731FFE
:100FB000C1E0D0E08617970738F05093E1034093E3
:100FC000E003DF91CF9108952491DC01AE51BC4F35
:100FD0003C91321781F02C939C01A5E03695279522
:100FE000AA95E1F7DE0102C0AA0FBB1F2A95E2F71E
:100FF0009D014A2B532B01963196DCCF3091DF03B4
:101000008317A0F590E0262F269526952695239FF9
:10101000800D911D1124811522E092073CF5FC0101
:10102000EE51FC4F5081677021E030E001C0220F8B
:101030006A95EAF74423D9F0252B2517B9F02083C8
:1010400025E0969587952A95E1F721E030E002C0EA
:10105000220F331F8A95E2F78091E0039091E1031C
:10106000822B932B9093E1038093E00308952095C6
:101070002523E3CFB0E0A0E0E0E4F8E00C94B23048
:10108000E82ED62E442371F1942F9695842F8170EB
:10109000890FC42EC694C694C394F42EF81ADFEFB9
:1010A000222329F1DE0DD80F10E0CE2DC90F402FDD
:1010B0006D2D8C2F810F0E94FE07402F6D2D8D2FDF
:1010C0000E94FE07402F6D2D8E2D810F0E94FE077E
:1010D000402F6D2D8F2D8D0F0E94FE071F5FD15069
:1010E0001C1528F3CDB7DEB7E8E00C94CE30D60F50
:1010F000D80F10E0C62FC90F6C2F610F402F8E2D17
:101100000E94FE07402F6D2F8E2D0E94FE076D2D31
:10111000610F402F8E2D0E94FE076F2D6D0F402F07
:101120008E2D0E94FE071F5FD1501C1528F3DACFC9
:101130000F9301E020E00E943A080F9108950F9369
:1011400060387105C8F4481759072CF4382F292F37
:10115000CA01432F522F8032910514F08FE190E0A5
:1011600097FD80E04032510514F04FE150E0481BFC
:1011700000E021E00E943A080F910895B0E0A0E05D
:10118000E4ECF8E00C94B2307C01EB016A01022F30
:1011900010E0B8016C0F7D1F0E949F08BE01601B0C
:1011A000710BA601C7010E949F08CDB7DEB7E8E02A
:1011B0000C94CE30B0E0A0E0E0EEF8E00C94AE305D
:1011C0007C015B01042F10E084E090E06C01C01A08
:1011D000D10AA8014E0D5F1DC701801B910B0E9413
:1011E0009F08B8016A0D7B1D603871052CF480E200
:1011F000E816F1040CF44DC0B501601B710B6038AA
:10120000710520F480E2E816F104F4F1C1E0D0E0C9
:101210002C2FA701400F511FB501C701801B910B57
:101220000E94BE084E018FEF881A980AD7FE18C098
:10123000CC0FDD1F2396CC0EDD1EE4018016910637
:101240003CF3A701400F511F282DB501C701801B9A
:10125000910B0E94BE08CDB7DEB7ECE00C94CA300B
:10126000AE014E0D5F1D202FB501C7018C1B9D0BDC
:101270000E94BE08C01BD10BCC0FDD1F2596CC0EE3
:10128000DD1E01501109D9CF40E08E2D0E94FE07CE
:10129000BDCF40E08E2D0E94FE07AECFA9E0B0E0AA
:1012A000E4E5F9E00C94A830182F762E542E622E27
:1012B000282F30E03987288784E090E07C01E21A0B
:1012C000F30A32E0431721F1862F867031F067E68A
:1012D000611B462D8FE00E94FE07872D807631F03E
:1012E000462D67E6610F8FE00E94FE07872D81780B
:1012F00031F0462D67E68FE0810F0E94FE07872DB3
:10130000887131F0462D67E68FE0811B0E94FE0751
:1013100001E010E0872D81708983972D92709A8368
:10132000272D24702B83372D38703C83872D8071B7
:101330008D83972D90729E83272D20742F837FE0BD
:10134000472EEFE02E2EF7E63F2EA7E6AA2EB12C71
:10135000888599859595879531E0531207C0801748
:10136000910744F42996E2E10C94C4308017910768
:101370000CF05BC08981882339F0462D632D601BFA
:101380008885815F0E94FE079A81992351F0462D3E
:10139000B50128853985621B730B8FE0800F0E9491
:1013A000FE073B81332351F0462DB5018885998591
:1013B000681B790B842D801B0E94FE079C8199235A
:1013C00041F0462D632D601B822D2885821B0E94D3
:1013D000FE073D81332341F0462D67E6600F822DE5
:1013E0009885891B0E94FE072E81222349F0462DF5
:1013F0006885798569597F4F842D801B0E94FE077F
:101400003F81332349F0462D6885798569597F4F9F
:101410008FE0800F0E94FE0777FE07C0462D67E62B
:10142000600F8885815F0E94FE07480168018FEF89
:10143000C81AD80AF7FE47C0C601880F991F01963F
:10144000E80EF91E860188859985C816D9060CF420
:101450007FCF91E0591609F485CF872D807C49F024
:10146000462D6885798569597F4F80E1880D0E94F6
:10147000FE07872D837059F067E670E0288539856F
:10148000621B730B462D80E1880D0E94FE07872D9D
:10149000807349F0462D6885798569597F4F8FE0C3
:1014A0008C190E94FE07872D8C7009F45BCF67E6CC
:1014B00070E088859985681B790B462D8FE08C1923
:1014C0000E94FE074FCFC80128853985821B930BE8
:1014D000880F991F0596E80EF91E215031093987AA
:1014E0002887B0CF382FCB01242F77FF02C06F5F42
:1014F0007F4F75956795E1E0F0E001C0EE0F6A95CA
:10150000EAF7AC0143705527452B39F064E070E0F1
:101510000E94FB3042E0039709F441E06E2F832FD5
:101520000E944E0908950F931F93CF93DF93C82F06
:101530008B01D42F0E94720A4D2FB8018FEF8C0FB0
:101540000E94720ADF91CF911F910F91089561302F
:1015500092E0790710F060E072E0FB01EE51FC4F81
:1015600090819817B9F0808385E0769567958A9584
:10157000E1F721E030E002C0220F331F6A95E2F765
:101580008091E0039091E103822B932B9093E103F0
:101590008093E00308952091DF0336E0839FC0012C
:1015A0001124629F800D911D1124811522E0920764
:1015B00014F090E080E08E519C4F9093E905809369
:1015C000E8050895CF93DF938091540380FD0CC00C
:1015D000D0E0C0E020E040E060E0CE010E94B10732
:1015E0002196CC30D105B1F70E947119DF91CF91CE
:1015F000089580915403982F9C7F39F4809154036F
:10160000837084608093540308958830B8F70895F8
:1016100080E0089563E070E08FE992E00E949B070C
:1016200090919E02891318C0E0919F02E830A4F4C3
:1016300088E0E802F0011124E05AFE4F0680F781AD
:10164000E02D309749F022EC32E04091A10262EAAD
:1016500072E08091A00209950895E0E6F1E0A4E926
:10166000B2E01C968C911C9780A31D968C9183AB45
:101670000895F894E82FE295EF70F0E031A1282F5B
:101680002F7081E090E001C0880F2A95EAF7982F2B
:101690009095932391A392A1892B82A37894089586
:1016A0000F931F9380918603882329F00E947B0764
:1016B0001F910F9108950E947B070091EF021091F6
:1016C000F0022091F1023091F202600F711F821F2F
:1016D000931FEECF9091010392FF10C041E0282F9D
:1016E0002471243009F040E031E0282F287128309F
:1016F00009F030E0431711F02CE0822793FF10C06F
:1017000041E0282F2471243109F040E031E0282FF6
:101710002871283109F030E0431711F02CE08227BE
:101720003091020330FF10C051E0282F2171213089
:1017300009F050E041E0282F2871283009F040E0FE
:10174000541711F029E0822731FF10C041E0282F03
:101750002171213109F040E031E0282F2871283132
:1017600009F030E0431711F029E0822794FD877ECD
:10177000089582389105B9F1B0F48133910509F4E7
:101780007DC048F48932910509F46DC08A32910513
:1017900009F47BC008958533910509F45FC089334E
:1017A000910509F10895833E9105D9F138F4803E01
:1017B000910529F1823E910579F10895863E9105C2
:1017C000D9F1873E910509F43EC0843E910541F56B
:1017D0002091020321FF24C08091010384FD19C0E0
:1017E00087EE90E0089520910103237009F05AC01C
:1017F0002091020323FF14C089E290E00895209114
:10180000010320FD38C03091020330FF09C024FFDE
:1018100043C090E080E008952091010322FDF7CFBE
:1018200008952091010322FD3AC03091020330FD5A
:1018300039C024FFF5CFEDCF2091010323FFF0CF76
:1018400024FDE7CFCDCF2091010323FD2EC03091A1
:10185000020331FFEECF84EE90E008952091010362
:1018600025FFDECFC9CF2091010325FD21C02091A6
:10187000020323FFD5CF89E390E0D2CF209101036B
:1018800026FFCECF8AE290E008952091010326FF43
:10189000C7CF81E390E0089583EE90E0089582EE53
:1018A00090E0089580EE90E0089586EE90E008952F
:1018B00085E390E00895972F7A30B8F46630A8F465
:1018C0008330B0F470E026E0929F600D711D11240A
:1018D000FB019CE3899FE00DF11D1124EE0FFF1F1A
:1018E000E855FD4F85919491089580E090E008952A
:1018F00081E0FCCF1F93CF93DF930E94B90BEC01E3
:10190000C11582E5D80708F03FC0C11580E5D807AA
:1019100008F0BCC0C83ED105C0F4C03ED10580F47B
:10192000C53AD10548F4C430D10550F4C130D105D1
:1019300039F0D0E0C0E004C0CD3CD105D0F3D06593
:10194000CE01DF91CF911F910895C11580E4D80792
:1019500008F06BC0C11580E2D80708F0B1C0C1150E
:1019600081E0D80730F38D2F0E946A0B182FCE012B
:1019700099270E94B90BC12FD0E0DC2FCC27CC27B0
:10198000DF71C82BD92BDCCFC03682E5D807F0F445
:10199000C03482E5D80708F059C0C03282E5D807C4
:1019A00008F04DC02C2F2695269580E2289F9001A7
:1019B00011248C2F8370C1E0D0E002C0CC0FDD1F5A
:1019C0008A95E2F7C22BD32BDD68BACFC03C82E503
:1019D000D807F8F4C03A82E5D80708F04CC0C03800
:1019E00082E5D80708F0A5CF2C2F269526952770DD
:1019F00080E2289F900111248C2F8370C1E0D0E0F9
:101A000002C0CC0FDD1F8A95E2F7C22BD32BDA6818
:101A100097CFC03E82E5D80708F08BCFDC2FCC27CC
:101A2000CC27DF71C06FD06A8BCFCE0199270E947F
:101A3000B90BCC27DF70C82BD92BD06A81CFCF71DF
:101A4000D0E0DC2FCC27C16FD06A7ACF2C2F26951F
:101A50002695277080E2289F900111248C2F837097
:101A6000C1E0D0E002C0CC0FDD1F8A95E2F7C22BA7
:101A7000D32BDC6865CF8C2F8F710E946A0BC82F27
:101A8000D0E0DC2FCC27CC27DF715ACF8C2F8F7181
:101A90000E946A0B55E0D695C7955A95E1F7CF702D
:101AA000D0E0DC2FCC27282F30E084FF05C044E0B5
:101AB000220F331F4A95E1F7C22BD32BD06940CFB9
:101AC0008D2F8F710E946A0B182FCE0199270E94CB
:101AD000B90BC12FD0E0DC2FCC27CC27DF71C82B6E
:101AE000D92BD0622DCF8091DE039091A50398135E
:101AF00001C008958F5F8770FACFCF92DF92FF9277
:101B00000F931F93CF93DF936C010091000380919B
:101B1000FF02082BC7E0D0E010E0FC2EC8010C2E1D
:101B200002C0959587950A94E2F780FD0CC0219735
:101B3000A0F7F12C8F2DDF91CF911F910F91FF9086
:101B4000DF90CF900895B6018C2F0E945B0C0E940D
:101B50007A0C019761F3EECFCF93DF93EC010E94F3
:101B60007D0DBE010E945B0C0E947A0CDF91CF912B
:101B70000895292F9A3078F5863068F590E036E0A0
:101B8000239F800D911D1124682F677023E0969587
:101B900087952A95E1F7FC01EE0FFF1FE80FF91F6B
:101BA000E05AFD4F50E040E080E0219130E0062E09
:101BB00002C0369527950A94E2F721703327042E48
:101BC00001C0220F0A94EAF7822B4F5F5F4F433028
:101BD000510559F7089580E00895292F9A3098F516
:101BE000863088F590E036E0239F800D911D11240A
:101BF000282F277041E001C0440F2A95EAF723E01F
:101C0000969587952A95E1F7FC01EE0FFF1FE80FE7
:101C1000F91FE05AFD4F30E020E070E05191DF0104
:101C20001197CB01022E02C0969587950A94E2F790
:101C3000817081958527842385278C932F5F3F4F63
:101C40002330310559F7089580930003089521E06A
:101C500030E001C0220F8A95EAF7209580910003B9
:101C600082230E94240E089521E030E001C0220F5B
:101C70008A95EAF780910003822B0E94240E089532
:101C80008093FF020895FC0124812223C1F080810A
:101C900091810E94AC0D92959F70963091F058F40E
:101CA000925F9F70923058F4803F19F030F4883E74
:101CB00030F481E008959A5FF4CF843FD1F380E05F
:101CC0000895883EB0F3813FD1F7F3CFA6E0B0E0AE
:101CD000ECE6FEE00C94B73049835A8349815A817F
:101CE0009923A1F0222391F0CA010E947D0D182FA3
:101CF000682F89819A810E94ED0D69817A81812FF7
:101D00000E945B0C2696E3E00C94D330CA010E943B
:101D1000B90D182FF2CF813022E0920710F080E049
:101D200092E08E519C4FFC0180810895B0E0A0E0CC
:101D3000ECE9FEE00C94B3307C018B01C42F672BDF
:101D4000A9F00E948B0ED82FD82EDC220E0D1F1D5D
:101D5000C8010E948B0EC0958C23B8018D290E946A
:101D6000A70AB7018D2F8C230E94A70ACDB7DEB733
:101D7000E7E00C94CF30A4E0B0E0E1ECFEE00C949E
:101D8000A8308F3108F083C06F3708F080C0A82FCB
:101D9000B0E0FD01E40FF11DB1970CF475C040E215
:101DA000481BE22EE60EFF24FF1CC7018038910578
:101DB00014F02FE7261B223008F469C0CD01840FF0
:101DC000911D800F911F80970CF0401B862F87700C
:101DD000E8E0F0E0E81BF109362F320F532F57707F
:101DE0008FEF90E07C010E2E02C0F694E7940A94E7
:101DF000E2F7E094EA82262E26942694269470E256
:101E0000279E100111242A0E3B1E6E0F66956695C3
:101E1000669570E2679F200111244A0E5B1E36957D
:101E20003695369560E2369F300111246A0E7B1E8E
:101E3000E22EF12CEE1AFF0AE51AF108FC82EB8281
:101E400029EFE2162FEFF20634F101C0880F5A9500
:101E5000EAF7E82EE094E9822B813C8137FF04C049
:101E6000295F3F4F3C832B83EB80FC8083E0F5941C
:101E7000E7948A95E1F7FC82EB82E42EF12C17FFC0
:101E800039C0D12CC12C26C0423008F08ACF24960C
:101E9000E2E10C94C4301C821B821982EECF4A818D
:101EA000B801C1018C0D9D1D0E94960E4981B8019B
:101EB000C3018C0D9D1D0E94960E42018C0C9D1C31
:101EC000B12CA12C6B817C81A616B70639F47FEF6B
:101ED000C71AD70ACE14DF0410F3D9CF4FEFB801D9
:101EE000C4010E94960E2FEFA21AB20A30E2830EAE
:101EF000911CE8CF81E0E81AF1086FEFE616F606CC
:101F000031F24A81B801C1018E0D9F1D0E94960ECB
:101F10004981B801C3018E0D9F1D0E94960E52018A
:101F2000AE0CBF1CD12CC12C2B813C81C216D30618
:101F300021F431E0E31AF108E0CF4FEFB801C50119
:101F40000E94960E9FEFC91AD90AE0E2AE0EB11CAC
:101F5000EBCFA7E0B0E0EFEAFFE00C94A830F90186
:101F600093E0F695E7959A95E1F7FB83EA8366950A
:101F700066956695F0E26F9F20011124480E511C72
:101F8000E11031C015E58AEA8983E42FF0E0FF8390
:101F9000EE836F01C40CD51CF12CE12C202E312CCA
:101FA000B12CA12C0C833D8266247724621873081F
:101FB0004601F1E08F1A91088E819F81A816B9061B
:101FC000B0F09FEFE91AF90AE0E2CE0ED11CF0E280
:101FD0004F0E511C8A819B818E159F05F9F627961D
:101FE000E2E10C94C4301AEA95E59983CECF8E8154
:101FF0009F812816390638F44981B301C101840D47
:10200000951D0E94960E412F6C817D81C40182191D
:1020100093090E94960E9FEFA91AB90AEFEF2E1AA4
:102020003E0ACACF0F931F93CF93DF93D82F162F5B
:10203000C42F022F422F8C0F0E94FE07402F612FCA
:102040008D2F8C1B0E94FE07DF91CF911F910F9166
:102050000895B0E0A0E0EFE2F0E10C94AF30C82FBB
:10206000962E082F10E084E090E07C01E01AF10A3F
:1020700067E66C0F492D8FE00E94FE0767E66C1B38
:10208000492D8FE00E94FE07292D4C2F67E670E056
:102090008FE090E00E941210C1E0D0E037E6A32E5E
:1020A000B12C292D4C2FB80169597F4F8FE090E05A
:1020B0000E941210292D4C2FB501601B710B8FE06F
:1020C00090E00E941210292D402FBE0169597F4FC8
:1020D0008FE090E00E941210292D402FB5016C1B5B
:1020E0007D0B8FE090E00E9412106E018FEFC81AF6
:1020F000D80AF7FE22C0C601880F991F0196E80E84
:10210000F91EE601C016D10664F2B80169597F4F85
:10211000292D4C2D8FE090E00E94121067E670E0B0
:10212000601B710B292D4C2D8FE090E00E94121046
:10213000CDB7DEB7EBE00C94CB30C01BD10BCC0F8E
:10214000DD1F2596EC0EFD1E01501109DACF0F930D
:10215000022F21E00E943A080F9108951F93CF9318
:10216000DF93D82F162FC42F21E00E94A71067E01D
:10217000610F21E04C2F8D2F0E94A71048E0612FA6
:102180008D2F0E9498088FEF8C0F48E0612F8D0FE4
:102190000E949808DF91CF911F910895FF920F93AD
:1021A0001F93CF93DF93182FC62FF42ED22FD60F65
:1021B000CD1305C0CDB7DEB7E5E00C94D130202FAC
:1021C0004F2D6C2F812F0E94A710CF5FF1CFEF9280
:1021D000FF920F931F93CF93E62F7A01DA01CC91F0
:1021E00041E050E060E070E00C2E04C0440F551F49
:1021F000661F771F0A94D2F704231523262337235B
:1022000091E0041715072607370709F490E0092F16
:1022100023E043E06E2F0E94CE10CF5FF701C08312
:10222000CF911F910F91FF90EF900895A1E0B0E042
:10223000ECE1F1E10C94AF306B017C0119822CE3ED
:10224000B22E8EEF982E9B0C97E0A92E9701860157
:10225000AE014F5F5F4F692D8A2D0E94E71084E029
:10226000A80E87E1A812F2CF9701AE014F5F5F4F32
:102270006B2D0E94E7109701AE014F5F5F4F6B2DF2
:102280008BE10E94E71084E0B80E8CE4B812D9CF3D
:102290009701AE014F5F5F4F6AE489E00E94E7104B
:1022A0009701AE014F5F5F4F6AE48DE00E94E71037
:1022B0009701AE014F5F5F4F6AE481E10E94E71032
:1022C0009701AE014F5F5F4F64E483E00E94E71027
:1022D0009701AE014F5F5F4F6AE483E00E94E71011
:1022E00044E06AE382E00E94AE1021E048E06AE345
:1022F00087E10E94A71041E069E387E10E94FE07A1
:1023000021E047E168E381E00E94A71021E04AE074
:102310006CE485E10E94A71041E06DE485E10E9434
:10232000FE0721E040E16EE486E00E94A71041E153
:102330006BE38FE10E94980844E169E380E00E942A
:10234000980841E06DE481E00E94FE0741E06EE400
:1023500082E00E94FE0741E06FE483E00E94FE07F6
:1023600041E060E584E00E94FE0741E06FE485E023
:102370000E94FE072196EBE00C94CB300F9365E0B2
:1023800080E00E94CB0A60EA70E08CEC90E00E9452
:10239000BE0721E049E167E285E00E94A71000E066
:1023A00028E240E260E580E00E94CE1048E060E56F
:1023B00080E00E94980848E060E58FE10E9498085C
:1023C00041E060E581E00E94FE0741E060E58EE1CA
:1023D0000E94FE076FE080E00E94CB0A60E270E09E
:1023E0008CEA90E00E94BE070F9108950E94BE11F2
:1023F00040E268E580E00E94980840E268E58FE1ED
:102400000E949808089590E0FB012191BF012813D4
:1024100002C0892F08959F5F9031B1F78FEF089523
:10242000EF92FF921F93CF93DF93EB01E42EF22EF6
:10243000FC0181850E940312182FBE018E2D0E947F
:102440000312C82FF1101BC04FE067E670E08FE069
:1024500090E00E94DA0860E08FE00E94291060E0BE
:102460008EE00E94291060E08DE00E94291061E05A
:102470008BE00E94291061E08AE00E9429100C2E56
:10248000000CDD0B41E0BE018FE00E94930ACE01FB
:10249000019620E1E22EF12CB7010E94FB3041E0D1
:1024A000BC018FE00E94930ACE010F96B7010E94F3
:1024B000FB3041E0BC018FE00E94930ACE010296FE
:1024C000B7010E94FB3041E0BC018FE00E94930AFB
:1024D000CE010E96B7010E94FB3041E0BC018FE0B7
:1024E0000E94930AC12F110FDD0B40E0BE018BE06B
:1024F0000E94930ACE010196B7010E94FB3040E092
:10250000BC018BE00E94930ACE010F96B7010E9496
:10251000FB3040E0BC018BE00E94930A61E085E063
:102520000E942910DF91CF911F91FF90EF900895A5
:10253000CF93DF93EB010E9403128F3F69F0895024
:1025400059F0FE013F9687FF0AC08F8592919183D3
:10255000CE17DF07D9F78883DF91CF91089588815F
:10256000DE0111969C9111979D93AE17BF07C9F795
:102570008F87F2CF20915202309153024091540242
:10258000509155026DEF73E483E090E00E94DF30DC
:102590006D537146894D9F4F609352027093530261
:1025A00080935402909355020895ABE0B0E0EBEDB8
:1025B000F2E10C94A830382E69830E94BA126B01A4
:1025C0007C010E94BA124B015C0110E000E03981ED
:1025D000232F30E03A83298349815A810417150754
:1025E0000CF465C0D701C601B695A7959795879558
:1025F00051E08527282F21702D831B861A86412CB8
:10260000512C320143942A84D301C201022C04C00C
:10261000880F991FAA1FBB1F0A94D2F789839A8338
:10262000AB83BC838C219D21AE21BF218E839F83F0
:10263000A887B98710E000E089819A81AB81BC81CD
:102640002E813F814885598582179307A407B507D6
:10265000D9F4D301C201002E04C0880F991FAA1F0C
:10266000BB1F0A94D2F7B501A401482359236A235A
:102670007B2384179507A607B70731F44D81632D97
:10268000600F822D0E94FE070F5F1F4F0032110561
:1026900099F64A855B854F5F5F4F5B874A8740327B
:1026A000510509F0B0CF2B96E2E10C94C4300E94A2
:1026B000BA12C622D722E822F9220E94BA12862232
:1026C0009722A822B9220F5F1F4F86CF2091520276
:1026D0003091530240915402509155026DEF73E4D2
:1026E00083E090E00E94DF306D537146894D9F4F2B
:1026F0006093520270935302809354029093550258
:102700009F7708954F925F926F927F928F929F92E0
:10271000AF92BF92CF92EF92FF920F931F93CF93FE
:10272000DF93EC014B015A01F22E688179818A8195
:102730009B810E945F07F401208131812901330FC1
:1027400066087708461657066806790600F50E945F
:102750007B07688379838A839B83CF2DD0E00E9497
:102760006613B8016C1B7D0B0E949430C80FD91FF3
:10277000F401D183C0830E94661364E670E00E9476
:10278000FB30E816190609F094F4F5011082DF9188
:10279000CF911F910F91FF90EF90CF90BF90AF908E
:1027A0009F908F907F906F905F904F9008950E94C0
:1027B00066136C2D70E00E94FB30F5018083E7CF3B
:1027C00060914E0270914F0280915002909151029F
:1027D0000E945F07072E000C880B990B0E94F332B2
:1027E00020E030E04AE755E40E94DC3129E838E88F
:1027F00048E85CE30E947F3320E030E0A9010E94BA
:10280000DD310E94BB32862F0895CF92DF92EF9286
:10281000FF9260914A0270914B0280914C0290911C
:102820004D020E945F0768357B418105910508F4E0
:1028300041C0609146027091470280914802909198
:1028400049020E945F076C32714081059105A0F139
:10285000C0904E02D0904F02E0905002F090510292
:10286000C701B6010E945F07613A7F40810591056B
:1028700048F0C701B6010E945F07603177428105C9
:102880009105E0F0C701B6010E945F076031774211
:1028900081059105B8F0C701B6010E945F07603558
:1028A00076448105910570F485E0FF90EF90DF900C
:1028B000CF90089584E0F9CF80E0F7CF81E0F5CFA5
:1028C00083E0F3CFC701B6010E945F07603576440D
:1028D00081059105A8F382E0E8CF0E9405148230BB
:1028E000A9F40E947B0760934A0270934B02809385
:1028F0004C0290934D020E947B0760934E027093AE
:102900004F0280935002909351020895843069F0F1
:102910008130C1F40E947B076093460270934702A6
:102920008093480290934902E6CF80E492E4AFE0BE
:10293000B0E080934A0290934B02A0934C02B09374
:102940004D02E8CF84508230B0F6E4CFE2EEF3E0FF
:1029500080E092E0DF019C011D9221503040E1F7C0
:10296000F093E905E093E8058FEF9FEF9093E10383
:102970008093E0030895CF93DF93C091E805D09151
:10298000E9058A30C1F42091DF03CE01825E9340D5
:10299000622F70E00E949430281B822F66E00E9414
:1029A000EF30C82FC15018F4DF91CF91089580E225
:1029B0000E94BB14F7CF8D30E9F4C25ED340209162
:1029C000DF03622F70E0CE010E949430281B822F1B
:1029D0009E01280F311D2115324018F080E0D0E013
:1029E000C0E0C80FD11DCE51DC4FD093E905C09394
:1029F000E805DACF96E0FE01A2EEB5E001900D9277
:102A00009A95E1F78E3708F458C086E0FE011192DE
:102A10008A95E9F7C091E805D091E90546E050E0D4
:102A2000BE0182EE95E00E946E319E01225E33402F
:102A3000892B41F1C90145E0969587954A95E1F7C3
:102A400041E050E0BA0102C0660F771F8A95E2F7B5
:102A5000CB016091E0037091E103862B972BB901C4
:102A60006B5F7F4FE5E076956795EA95E1F702C0E9
:102A7000440F551F6A95E2F7842B952B9093E10341
:102A80008093E0032A5F3F4F4091DF03642F70E0A3
:102A9000C9010E949430481B463010F4240F311DA8
:102AA000211572E0370710F030E020E02E513C4F46
:102AB0003093E9052093E80577CFF6E08F9FB001CA
:102AC00011246C5A774F46E050E0CE010E946531E8
:102AD000A1CFCF93DF93D82FC62F57FD12C0443616
:102AE000510544F40E9466136FE070E00E94FB30D1
:102AF000C1E0C80F6CE08D2F0E94CB0A8C2F0E9482
:102B0000BB14DF91CF9108950F931F93CF93C82FDC
:102B100066E082E00E94CB0A8C2F0E94BB1402E088
:102B200010E028E046E060E38CE00E94BB0ECF910D
:102B30001F910F9108958091900390917F02892BAE
:102B400080933E0248E050E060E872E08EE392E05D
:102B50000E946E31892BA9F088E0EEE3F2E0A0E854
:102B6000B2E001900D928A95E1F7E0918803F0912F
:102B70008903309731F00280F381E02D8EE392E0FB
:102B800009950895E0E4F2E086E0DF011D928A9560
:102B9000E9F710927F020E949B150895AAE2B0E027
:102BA000E4EDF5E10C94B7308CE993E02091F1006D
:102BB000FC012193CF01F3E0843A9F07B9F780919C
:102BC0009D03833009F470C0B8F4813009F447C024
:102BD000823009F4B7C08091E80083FF3FC1809143
:102BE0009C0390919D039A3008F038C1E92FF0E0E2
:102BF000E251FC4C0C940F318A3009F492C08B30B6
:102C000009F46FC0893039F780919C03813219F73C
:102C10008091A0039091A103892BE9F68091E800AF
:102C2000877F8093E8008091E80082FF38C0909110
:102C3000F3008091F200029731F48091F10081302D
:102C400011F0863021F48091F1008093A1018091F0
:102C5000E8008B778093E8000E94DF06BCCF80916C
:102C60009C03813A09F0B7CF8091E800877F809379
:102C7000E8008091A0039091A103892B61F468E0A2
:102C800081E993E070E00E94FE068091E8008B7776
:102C90008093E800A0CF60E090E080E0F3CF8091E7
:102CA000A4038111C0CF97CF80919C03813A09F092
:102CB00092CF8091A0039091A103892B09F08BCF33
:102CC0008091E800877F8093E8008091E80080FF92
:102CD000FCCF8091A2018093F1008091E8008E7773
:102CE000B9CF80919C03813209F075CF8091A00308
:102CF0009091A103892B09F06ECF8091E800877F26
:102D00008093E8000E94DF0681E090919E0391117C
:102D100001C080E08093A201109290030E94C2152E
:102D20005ACF80919C03813209F055CF8091E80001
:102D3000877F8093E8000E94DF0680919F03809345
:102D4000A00149CF80919C03813A09F044CF809142
:102D5000E800877F8093E8008091E80080FFFCCF47
:102D60008091A001B8CF803899F0823809F076C000
:102D70008091A0038F70873008F070C08093E900C5
:102D80008091EB0085FB882780F91092E90006C04E
:102D90008091990390919A03911182609091E8003B
:102DA000977F9093E8008093F1001092F10080915A
:102DB000E8008E7794C1882309F481C1823009F03C
:102DC0004DC080919E03811185C18091A0038F70B9
:102DD0002FEF280F263008F041C08093E9002091A2
:102DE000EB0020FF77C1933031F48091EB008062DB
:102DF0008093EB006FC19091EB0090619093EB009A
:102E000021E030E001C0220F8A95EAF72093EA0022
:102E10001092EA008091EB008860EACF81111EC019
:102E200010919E031F778091E3008078812B80931F
:102E3000E3008091E800877F8093E8000E94DF062E
:102E40008091E80080FFFCCF8091E3008068809350
:102E5000E30082E0111183E08093A4038091E800F5
:102E600083FF0AC08091E800877F8093E80080910B
:102E7000EB0080628093EB00AA96E3E00C94D330E1
:102E80008058823058F780919E0390919F038C3D2B
:102E900023E09207A1F583E08A838AE289834FB712
:102EA000F894DE01139620E03EE051E2E32FF0E0DB
:102EB00050935700E49120FF03C0E295EF703F5F0D
:102EC000EF708E2F90E0EA30C0F0C7968D939D93FF
:102ED0002F5F243159F74FBF8091E800877F80939F
:102EE000E8006AE270E0CE0101960E94FE06809141
:102EF000E8008B778093E800B1CFC096E7CF409190
:102F0000A0035091A103292F33272330310509F461
:102F10003FC078F52130310509F466C082E290E0C7
:102F2000EAEFF7E02230310509F098CF2091E80070
:102F3000277F2093E8002091A2033091A3038217FA
:102F4000930708F49C0140E02115310509F051C0B8
:102F500041114FC08091E80082FDC9CF8091A40348
:102F6000882329F2853019F28091E80083FFF2CF9F
:102F7000BECF2132310581F12232310509F06ECF09
:102F8000452B09F06BCF84E490E0E6EBF7E0CECF81
:102F9000992781309105C1F0009759F0029709F007
:102FA0005DCFEEE2F8E0E4918E2F90E0EEE2F8E003
:102FB00007C0E0E5F8E0E4918E2F90E0E0E5F8E06E
:102FC000009709F0B3CF4ACFEEE3F8E0E4918E2FFB
:102FD00090E0EEE3F8E0F4CF452B09F03FCF89E035
:102FE00090E0ECE0F8E0A2CF82E190E0ECE1F8E0E4
:102FF0009DCF8091A403882309F479CF853009F40B
:1030000076CF8091E80083FD72CF8091E80082FD49
:10301000A1CF8091E80080FF97CF9091F30080913D
:10302000F2002115310519F08830910550F041E08A
:10303000089709F040E08091E8008E778093E800DF
:1030400083CF44914093F10031962150310901968C
:10305000E8CF803809F002CF8091E800877F809325
:10306000E80080919B038093F100A1CE8111F6CE00
:1030700010919E03123008F0F1CE8091E800877F16
:103080008093E80010939B030E94DF06112311F048
:1030900084E005C08091E30087FDFACF81E0809352
:1030A000A40361EC81E00E9403068091A4038430B4
:1030B00021F081E08093A301D1CE82E0FBCF80910B
:1030C0009E03813009F0CACE81E0933009F080E0A0
:1030D00080939A031092E9008091E800877F8093A3
:1030E000E8000E94DF06BACE882341F080959091D7
:1030F00090038923809390030E949B150895882351
:1031000039F090919003982B909390030E949B1517
:103110000895882391F09CEF980F913A78F4E0E4B9
:10312000F2E09191891303C0DF0111971C9242E0F4
:10313000E634F407B1F70E949B15089590E2980FCA
:103140009830D8F7877021E030E0A90102C0440F21
:10315000551F8A95E2F7CA018095909190038923C3
:1031600080939003E8CF0F931F93CF93C82F8823AA
:1031700039F18CEF8C0F813AB0F500E412E0F801E0
:103180008191C81709F182E0E634F807C9F7EFEF3B
:1031900080E0D8019D918D01C91781F0EF3F19F4AE
:1031A000911101C0E82F8F5F863099F7EF3F31F022
:1031B0000E2E000CFF0BE25CFD4FC2830E949B159C
:1031C000CF911F910F910895E0E4F2E08191C8132F
:1031D00003C0DF0111971C92A2E0E634FA07B1F7B1
:1031E0000E949B15D4CF80E28C0F883048F7C770BF
:1031F00021E030E001C0220FCA95EAF780919003E8
:10320000822B80939003DACF0F931F93CF93DF939A
:10321000EB01682F80E00E94CB0AFE0101900020A4
:10322000E9F78F0101501109C017D10728F0DF918C
:10323000CF911F910F91089589910E94BB14F4CFF3
:103240000F931F93CF93DF938C018091A40384305D
:1032500059F581E08093E9008FEF9091E80081506B
:1032600095FD06C095ED9A95F1F700008111F5CF17
:103270008091E80085FF18C00E94AE0681110FC042
:10328000C8E0D0E08091E80085FD13C08091E8009F
:103290008E778093E8000E94AE06882399F3809190
:1032A000E8008E778093E800DF91CF911F910F9116
:1032B0000895F80181918F018093F100219711F712
:1032C000EECFCF93DF93EC010E94201988E0FE013E
:1032D000A1E9B3E001900D928A95E1F7DF91CF91DA
:1032E00008953BB1377F2BB128604FB7F89482E641
:1032F00093E0FC015191CF0168E02BB9000000C0C0
:1033000057FF3BB9550F000000C000C000C03BB9DB
:1033100000C06A9591F7F3E086389F0751F74FBFD9
:103320008FE594E00197F1F700C000000895B0E048
:10333000A0E0EDE9F9E10C94B0307C015B016A0199
:103340008091500301E010E08A3010F40AE010E0B0
:10335000C1E0D0E0B501C701F6010995811104C0B3
:1033600021960C171D072CF4CDB7DEB7EAE00C94BC
:10337000CC30CC9F9001CD9F300D300D112490E0CA
:1033800080E045E34A95F1F7000001968217930724
:10339000C1F7E0CF109290030E94C2152FEF84E393
:1033A0009CE0215080409040E1F700C0000088E19F
:1033B0009CE00FB6F894A895809360000FBE9093A0
:1033C0006000FFCFAB0124E630E0BC0188E70E943B
:1033D000482E21E0892B09F020E0822F089580916A
:1033E000600390916103911103C091E089270895D2
:1033F000882369F062E070E084EB97E00E94E219B4
:10340000811103C080916003089510926003809140
:103410006003EBCFCF93C091600380916103882359
:10342000D1F00E947B07605A75418F4F9F4F609388
:103430005C0370935D0380935E0390935F03C111FF
:1034400008C062E070E082EB97E00E94E21981110F
:1034500005C0C09160038C2FCF91089581E08093C7
:103460006003F7CFB0E0A0E0E8E3FAE10C94AE30FF
:1034700049015A016B017C010E94F90A8401A401EF
:103480006A2D7B2D88E090E00E94BA3194014A2D8C
:103490005B2DB601C70100E20E943B31622F83E23F
:1034A00090E00E94A831CDB7DEB7ECE00C94CA30B2
:1034B000B0E0A0E0EEE5FAE10C94AE30082F162F54
:1034C000B42E822E9090540390FE37C0892D8C7FAD
:1034D0008430E1F4E42FF0E0EE54F94F611132C092
:1034E000C491DC2FFC2E90FE11C0D12CC12C2D2FAD
:1034F0004F2D6C2FC6010E94B1075FEFC51AD50A88
:103500008CE0C816D10499F70E94E20A0093550393
:1035100010935603B0925703882079F020915403FA
:103520006091580370915903302F412F5B2D80918A
:103530005A0390915B030E94321ACDB7DEB7ECE0DC
:103540000C94CA30E62EF12CC491AC2EEC2FF0E096
:1035500026E0029FC00111242FEF30E0B9010E9444
:103560009430802F90E0880F991FA5E5A69FA001B9
:10357000A79F500D1124841B950BA82FAA0FA80FED
:10358000A9014E195F094E9FC0014F9F900D5E9F8C
:10359000900D1124D92F1A9FA0011124452F5527D2
:1035A0006901C41AD50AA6014E9F60014F9FD00C35
:1035B0005E9FD00C1124A9014A1B5109DA01AE9D6E
:1035C000A001AF9D500DBE9D500D1124452F5527D4
:1035D000241B350B2E9FA0012F9F500D3E9F500D99
:1035E0001124F52E62307105A1F050F461157105BA
:1035F00009F479CF6130710581F0F92EDD2D73CF9B
:103600006430710569F080F06630710509F46BCFA4
:10361000F4CFC92FD52FFA2C66CFFC2ECD2D63CF3A
:10362000C52FF92EDA2D5FCFFD2CC92FFBCFE4E596
:10363000F3E0438121E1421B08F440E021E0628194
:1036400081810E94581A0895E4E5F3E0438121E165
:10365000420F08F44FEF21E0628181810E94581AE5
:103660000895E4E5F3E0628121E1621B08F460E083
:1036700021E0438181810E94581A0895E4E5F3E036
:10368000628121E1620F08F46FEF21E043818181C3
:103690000E94581A0895E4E5F3E0818121E0438116
:1036A000628188500E94581A0895E4E5F3E0818110
:1036B00021E043816281885F0E94581A08958091B9
:1036C0005803882319F081508093580320915403A4
:1036D0003091550340915603509157036091580320
:1036E0007091590380915A0390915B030E94321AA2
:1036F000089580915803833018F48F5F80935803A6
:103700002091540330915503409156035091570333
:10371000609158037091590380915A0390915B0313
:103720000E94321A08952091540320FF1FC0237075
:10373000246020935403662381F030915503409117
:10374000560350915703609158037091590380912B
:103750005A0390915B030E94321A20E04091570374
:1037600060915603809155030E94581A08958091E4
:10377000540386958695815009F481E061E00E94AA
:10378000931B089561E081E00E94931B0895B0E0CF
:10379000A0E0EDECFBE10C94B3307901C82F880F69
:1037A000DD0B41155105A9F0FE0193E0EE0FFF1F5F
:1037B0009A95E1F7E05AFE4F818192818C569D4F98
:1037C000208130E04217530708F49A01A9010E94B2
:1037D0007B31CE010E941E30D82E8823D1F00115F6
:1037E0001105B9F083E0CC0FDD1F8A95E1F7FE01EA
:1037F000E05AFE4F438150E00417150708F4A80172
:10380000C05ADE4F6C817D816C567D4FC7010E948E
:103810007B318D2DCDB7DEB7E7E00C94CF30A4E03F
:10382000B0E0E5E1FCE10C94B6306091EB02709100
:10383000EC028091ED029091EE020E945F0711E090
:10384000643671058105910518F10E94500B6E5F79
:103850007F4F8F4F9F4F69837A838B839C8310E0C8
:1038600000E030E020E044E050E0BE016F5F7F4FB9
:1038700082E00E94C71B182F882351F00E947B070B
:103880006093EB027093EC028093ED029093EE0252
:10389000812F2496E4E00C94D230A6E0B0E0E3E57A
:1038A000FCE10C94B4307B0101E010E09E012A5F42
:1038B0003F4F50E040E070E060E080E00E94C71BB6
:1038C000182F882309F446C06091E7027091E8023E
:1038D0008091E9029091EA020E945F0764367105C7
:1038E0008105910548F465E070E085E992E00E9469
:1038F0009B079E81891771F105E010E09E012F5F03
:103900003F4F50E040E070E060E081E00E94C71B64
:10391000082F65E070E085E992E00E949B0711E0C6
:103920009E81981310E0102301F10E947B076093A1
:10393000E7027093E8028093E9029093EA0285E03F
:10394000FE013196A2EEB2E001900D928A95E1F768
:1039500011E00BC085E0E5E9F2E0DE01119601908F
:103960000D928A95E1F71111EACF85E0E2EEF2E0DF
:10397000D70101900D928A95E1F7812F2696E6E016
:103980000C94D0301F920F920FB60F9211242F93E8
:103990003F934F935F936F937F938F939F93AF93D7
:1039A000BF93CF93DF93EF93FF93D091E900DF7044
:1039B0008091EC00C82FC17080FDC0E81092E90032
:1039C0008091F000877F8093F00078940E94CE155C
:1039D0001092E9008091F00088608093F000CD2B78
:1039E000CF70C093E900FF91EF91DF91CF91BF912C
:1039F000AF919F918F917F916F915F914F913F9187
:103A00002F910F900FBE0F901F9018951F920F923D
:103A10000FB60F9211242F933F934F935F936F93A1
:103A20007F938F939F93AF93BF93EF93FF93809177
:103A3000E10082FF09C08091E20082FF05C0809111
:103A4000E1008B7F8093E1008091DA0080FF24C049
:103A50008091D80080FF20C08091DA008E7F809313
:103A6000DA008091D90080FFA9C080E189BD82E1A0
:103A700089BD09B400FEFDCF81E08093A40380914D
:103A80008F03811109C00E9435060E94540680915F
:103A9000E20084608093E2008091E10080FF1AC020
:103AA0008091E20080FF16C08091E2008E7F8093BB
:103AB000E2008091E20080618093E2008091D80072
:103AC00080628093D80019BC85E08093A40383E0D2
:103AD0008093A3018091E10084FF30C08091E200D7
:103AE00084FF2CC080E189BD82E189BD99B5892F11
:103AF000817090FFFBCF9091D8009F7D9093D8006C
:103B00009091E1009F7E9093E1009091E2009F7E72
:103B10009093E2009091E20091609093E200909186
:103B20009B03992309F450C094E09093A4039091CF
:103B3000A403943009F482E08093A3018091E10012
:103B400083FF2BC08091E20083FF27C08091E100BA
:103B5000877F8093E10082E08093A40310929B030F
:103B60008091E1008E7F8093E1008091E2008E7F62
:103B70008093E2008091E20080618093E20060E047
:103B800080E00E9403068091F00088608093F0003E
:103B900081E08093A3018093A201FF91EF91BF91F7
:103BA000AF919F918F917F916F915F914F913F91D5
:103BB0002F910F900FBE0F901F90189519BC109267
:103BC000A40310928F0368CF9091E30097FD02C089
:103BD000982FABCF93E0A9CF78941F921FB61F9276
:103BE00011248F939F93AF93BF9380918B039091F8
:103BF0008C03A0918D03B0918E030196A11DB11D80
:103C000080938B0390938C03A0938D03B0938E03CA
:103C1000BF91AF919F918F911F901FBE1F901895DC
:103C20009C014FB7F89480918B0390918C03A091E5
:103C30008D03B0918E034FBF821B930B08952FB756
:103C4000F89480918B0390918C03A0918D03B09197
:103C50008E032FBF0895AFE0B0E0E1E3FEE10C94E6
:103C6000AD308E010F5F1F4F8AE0F80111928A95E7
:103C7000E9F783E0C82E82E0D82EF12CE12CAA24AB
:103C8000A394B12C2EE0822E22E0922EF601819197
:103C90006F018F3F09F442C0F894E82FE295EF706E
:103CA000F0E021A18F70A50102C0440F551F8A9535
:103CB000E2F7CA01922F982B91A392A180958923B4
:103CC00082A3789400C0E8E0F2E0712C31E0219109
:103CD0002F3F09F48CC0A22FA295AF70B0E0909650
:103CE0008C9190E02F7002C0959587952A95E2F708
:103CF00080FD7DC0832F782A330F8E169F0639F7FB
:103D0000F601319780818F3F11F00E94390B50EA04
:103D10005A95F1F7F801EE0DFF1D70828FEFE81A4A
:103D2000F80AE5E0EE16F10409F0B0CF4AE050E001
:103D3000B80183EF92E00E946E31009741F02AE0D3
:103D4000F801A3EFB2E001900D922A95E1F70091FE
:103D5000FE0210E00C5F1C4F892B09F44AC081E081
:103D600080938C020E941F1E90938B0280938A0284
:103D7000F12CE0908603EE2009F492C06E01FBE086
:103D8000CF0ED11C85E0F60111928A95E9F780915A
:103D900050038A3008F051C04DE45CE1B601C8011F
:103DA0000E949719882309F46AC04FE05CE1B601CC
:103DB000C8010E949719882309F461C0109250032A
:103DC0008091FD0290E045E050E0B6018C5F9C4F91
:103DD0000E946E3121E020939302892B09F042C0AA
:103DE000E12C8E2D8F292F96EDE00C94C93080E0C8
:103DF00082CFF0908C02FF2009F4BACF80918A0222
:103E000090918B020E94101E059708F4B1CF45E0F7
:103E100050E063EF72E0C8010E946E31892B59F0C7
:103E200085E0E3EFF2E0D80101900D928A95E1F789
:103E300010928C029ECFF12CFBCF80918D0290913D
:103E40008E020E94101E843F914008F0A5CF809101
:103E50009302882329F285E0F60111928A95E9F709
:103E600010929302A091FD02B0E0AC5FBC4F85E0E0
:103E7000FE013B9601900D928A95E1F7B2CF8091B9
:103E800050038F3F31F08F5F809350038A3008F4E6
:103E900097CF0E941F1E90938E0280938D02D7CFE2
:103EA00085E0F801A5E9B2E001900D928A95E1F76D
:103EB00065E070E085E992E00E949B0780939402A0
:103EC00080909A0290909B02A0909C02B0909D02DC
:103ED00080918F0290919002A0919102B0919202F4
:103EE00088169906AA06BB0609F47BCF80928F023A
:103EF00090929002A0929102B09292020E947B074F
:103F0000861A970AA80AB90A8092EF029092F002E4
:103F1000A092F102B092F20264CFB0E0A0E0E3E937
:103F2000FFE10C94B030C0915F02D0913601CD1307
:103F300076C00E94E01362E0C62EE82E0EE511E086
:103F400026E948E552E060E071E089E592E00E94F0
:103F5000821380915802882339F0813041F0CDB727
:103F6000DEB7EAE00C94CC300E94F611F8CF8091D5
:103F70005602909157020E94101ECD9780F30E9426
:103F80001F1E90935702809356020E94F611D4E0B0
:103F900036E0A32EB12C44E1C42ED12C53E1E52E02
:103FA000F12C0E946613B5010E94FB30C4E0C80FDB
:103FB0000E9466138C010E946613FC01C801B601C1
:103FC0000E94FB3035E5380FCF01B7010E94FB306E
:103FD00001E02C2F4C2F632F8D5F0E94CE100E948A
:103FE0006613B5010E94FB30C82F0E9466138C0136
:103FF0000E946613FC01C801B6010E94FB3034E642
:10400000380FCF01B7010E94FB3001E02C2F4C2F5D
:10401000632F8D5F0E94CE10D15019F6A0CF8091F2
:104020005D0290915E020E94101E459708F497CFA2
:104030000E941F1E90935E0280935D020E94BE113B
:104040008EEF8C0F8230D0F46CE080E00E94CB0ABF
:104050002C2F2250330BC90126E0880F991F2A9577
:10406000E1F760E470E084599E4F0E94BE07CD17CF
:1040700008F059C0CF5FC0935F0271CF8BEF8C0FF8
:10408000823040F46CE080E00E94CB0A2C2F235059
:10409000330BE1CFC430A1F038F4C13041F761E017
:1040A0008BE00E942910E3CFC73009F1C830F9F640
:1040B00040E268E580E00E94980840E268E513C0AD
:1040C00021E04CE067E681E00E94A71021E04CE08F
:1040D00067E683E10E94A71043E066E680E00E9465
:1040E000980843E066E68FE10E949808C0CF41E05F
:1040F00067E681E00E94FE0741E067E683E00E94F8
:10410000FE0741E067E68CE10E94FE0741E067E6BA
:104110008EE10E94FE074AE16BE580E00E9498086C
:104120004AE16BE5E0CFC150A6CF0E941F1E9093DD
:104130005E0280935D0288E080935F0210923601F8
:104140000895CF938C32910531F09C0128523109AA
:104150002230310590F40E941F1E90932403809317
:104160002303109225030E940514813061F50E94FB
:1041700095200E946D14CF91089525E0209325038A
:104180008C33910580F784599D4FFC01C491809137
:10419000340180933501C09334011092280368E400
:1041A00071E08C2F0E9403128F3F19F0C0935801C9
:1041B000DACF67E371E08C2F0E9403128F3F99F2F0
:1041C000C0934701D0CF9CEF980F923018F40E9413
:1041D000A614CDCF823069F60E94A6140E949520C5
:1041E00010921B03C6CFFB01808191810E94A12008
:1041F0000895B0E0A0E0EFEFF0E20C94B3308C0152
:10420000FC018481882309F444C021E0408151816C
:104210006281738195810E94660EEC01F8018581AF
:10422000882351F0D0935203C093510381E08093CF
:104230005303CE010E94A120F8019581992309F42E
:1042400068C0809190038272FE01E052F847EB3023
:10425000F10508F05EC0E850FC4C0C940F318091E1
:10426000540380FF1BC0282F2E7F209354033091CE
:104270005503409156035091570360915803709134
:10428000590380915A0390915B030E94321A0E9455
:10429000E20ACDB7DEB7E7E00C94CF3081608093BF
:1042A000540361E0869586950E94931BF2CF882384
:1042B00029F00E94B71BEDCF8823D9F30E94C21BBF
:1042C000E8CF882329F00E944B1BE3CF8823D9F342
:1042D0000E94551BDECF882329F00E94311BD9CFC5
:1042E0008823D9F30E943E1BD4CF882329F00E9453
:1042F000171BCFCF8823D9F30E94241BCACF882352
:1043000029F00E945F1BC5CF8823D9F30E94791B37
:10431000C0CF9E01205E324520323105A8F49111B4
:104320005CC0CF7181E090E09C0102C0220F331F7E
:10433000CA95E2F7E901622F83E090E00E94A8317C
:104340008C2F0E94400EA5CF992309F446C0C1309E
:104350003CE7D30709F43FC0C3304CE7D407A9F1C9
:10436000C115DC4709F039C0109290030E94C215B4
:104370009FEFE4E3FCE09150E040F040E1F700C043
:10438000000081E08093E00080E28093D8001092EA
:10439000C9008FE19EE40197F1F700C0000087E0BB
:1043A00090EBDC018093EA059093EB05A093EC057C
:1043B000B093ED0588E19CE00FB6F894A895809342
:1043C00060000FBE90936000FFCF6FEF7FEF90E033
:1043D00080E00E94C6310E94CA19F801C081D181D3
:1043E000992309F1CE010E947D0DF82E682FCE0190
:1043F0000E94ED0DBE018F2D0E945B0C0E947A0C75
:10440000C82FD82EF8012581368132953F70892F2B
:1044100082958F70E82EF12C8C30E8F5F701ED5F76
:10442000FB4C0C940F31CE010E94B90DF82EE2CF57
:10443000D92FDF70907F11F0D295D07F8C2F22235F
:10444000C9F0DD2369F090E29C0F983010F0C111A3
:104450000BC080919003D82BD09390030E949B15A2
:104460008C2F0E94B31817C080917F02D82BD09355
:104470007F02F4CF0E948918DD2369F0D095C05ED9
:10448000C83010F0D1101BC080919003D823D09376
:1044900090030E949B1548E0E41AF10884E0E816B6
:1044A000F10410F40E948A0720E0F8014081518154
:1044B00062817381848195810E94660EEACE80912B
:1044C0007F02D823D0937F02E4CF892F8F70907F13
:1044D000903211F08295807FF1E0DF120CC0222330
:1044E00029F03330C0F60E947F18D5CF323098F6CD
:1044F0000E947418D0CF222319F03323A1F3B0CF38
:104500003323B1F3C93349F42FEF37EE43E02150A1
:1045100030404040E1F700C000008C2F0E94891815
:10452000BACF892F8370A1F52111B5CF8C2F829539
:1045300086958770880F880F4C2F4F70082E01C00A
:10454000440F0A94EAF72C2F2071C4FF07C02FE014
:1045500030E001C0220F8A95EAF72095969596954E
:104560009370923081F0822F842B933030F48091BD
:10457000FF02913029F0242B82230E94400E8BCF22
:10458000842B822BFACF242B8091FF028227F5CF38
:104590008695222311F0892F8170882309F47BCF1F
:1045A0008C2F829586958770880F880F4C2F4F70BF
:1045B000082E01C0440F0A94EAF72C2F2071C4FF83
:1045C00007C02FE030E001C0220F8A95EAF720955E
:1045D000969596959370923081F0822F842B93302C
:1045E00030F480910003913029F0242B82230E9423
:1045F000240E51CF842B822BFACF242B80910003E1
:104600008227F5CFD92FDF70222329F08D2F0E942A
:10461000340E8C2F68CF8C2F0E9474188D2F0E941F
:10462000270E39CF8C2FE1EFCE1789F1EC1750F020
:10463000F0EFCF17B9F02223B1F1311111CF892F4B
:104640008F7129C042EFC41749F1E3EFCE13F3CFC6
:1046500080E0222361F29F7181E001C0880F9A956A
:10466000EAF7C5CF222379F0323008F014CF292F92
:104670002F7181E090E001C0880F2A95EAF79091B0
:1046800000038927B4CF333008F005CFF0CF892F4E
:104690008F71222321F20E94340EFDCE892F8F715B
:1046A0002223C9F3BCCF332359F0893309F035CF26
:1046B000FFEF27EE33E0F15020403040E1F72BCF01
:1046C000892F8F71ACCFCF93DF9380917E02807F53
:1046D00009F04DC080917D02882309F448C0E09123
:1046E000DE035091A503C0917902D09178026091C8
:1046F0007A0270917B0247E05E17C9F18E2F90E03D
:10470000E49FF0011124EA55FC4F2481222391F10A
:10471000489FF001499FF00D1124DF01AA55BC4FBD
:1047200011962C9111972C1325C02C912D1322C07A
:1047300015962C91159721111DC012962D913C9123
:10474000261B370B283C3105A8F480917E028F7020
:10475000806180937E02E455FC4F80818F70806180
:10476000808388E792E00E94F9200E94730DDF9118
:10477000CF910895FC013196E770BECFA4E1B0E07F
:10478000E4ECF3E20C94AE308C0186E0F801DE013B
:104790001F9601900D928A95E1F7F8018481E580DA
:1047A00098E7A92E92E0B92E90917C02911128C031
:1047B000882319F1EE20F1F0C8010E94430EF82E73
:1047C0008823C1F087E0F801D50101900D928A9508
:1047D000E1F780917C02813031F4809178029091F0
:1047E00079020E94AC0D0E9463238F2D6496ECE049
:1047F0000C94CA30C8010E94F920FF24F394F5CF2D
:10480000D080C18082809380F0907D0220917A02D6
:1048100030917B02A401421B530BFF2009F4D9C045
:10482000483C510508F092C08823F9F29091790232
:1048300080917E02282F207F09F056C0C91214C033
:1048400090917802D91210C0E11048C08F70806139
:1048500080937E0288E792E00E94F92080917E0298
:10486000F8018683F12CC1CFE11038C06C2D8D2D5D
:104870000E94E4056C2D8D2D0E94E405E82E811127
:10488000F1CFDF86C88A8F8598890E94AC0D292FC9
:1048900022952F70243058F49F70223088F099238D
:1048A00099F0F8019681907F79F4FE2C9ECF2A5FD3
:1048B0002F70223068F0C8010E94F920EF2CF5CF4C
:1048C000992311F0882389F3805E883070F3F3CF49
:1048D000803F58F3815F833070F7E7CF80917E028D
:1048E000816080937E02BECFC91207C0909178028A
:1048F000D91203C0EE2009F48DC0C8010E94430EF6
:10490000882309F477CFEE2009F474CF80917E02DA
:10491000803288F020917802309179023987288797
:104920009B868A8690917C029C871D868E87CE010D
:1049300008960E94F92087E0F801A8E7B2E001900C
:104940000D928A95E1F70E94632357CF90917E02E2
:10495000292F207F51F488E792E00E94F92087E018
:10496000F50111928A95E9F77DCF882309F43DCFAF
:10497000809179028C1110C080917802D8120CC0FD
:10498000E1100AC09683C8010E94F92087E0F50172
:1049900011928A95E9F729CFC8010E94430E882316
:1049A00009F428CFEE2009F425CF80917E028032D1
:1049B00010F220917802309179023A8329839C8207
:1049C0008B8290917C029D831E828F83CE01019603
:1049D000B0CF483C5105D0F6882309F40ECFFE2C09
:1049E000EE2009F407CF809179028C1120C08091CC
:1049F0007802D8121CC080917E0280FD0FC0982FD3
:104A0000907F61F08683903F31F0982F907F905F88
:104A10008F70892B8683C8010E94F92087E0F801F6
:104A2000A8E7B2E001900D928A95E1F7DECEC801C9
:104A30000E94430E81117FCF80917E02816080931E
:104A40007E02C8010E94F920D0CEABE1B0E0EBE2DB
:104A5000F5E20C94B6304E8B5F8B688F798F8A8F1E
:104A60009B8F192F911110927F021D8A86E0FE0103
:104A70007696DE011F9601900D928A95E1F70A8DD8
:104A8000002341F021E04F85588969897A89C8015E
:104A90000E94660E0B8B1C8B87E0FE013F96DE01A9
:104AA000189601900D928A95E1F7CE0108960E9422
:104AB000BE2381110CC087E0FE013896DE011196FD
:104AC00001900D928A95E1F78C8581110BC017E05A
:104AD0008091DE039091A503891333C06B96E4E0C7
:104AE0000C94D2302091A50330E0C9010196877063
:104AF00099274091DE034817190699F097E0929F95
:104B0000D001939FB00D1124AA55BC4FFE013196E0
:104B100001900D929A95E1F78093A5030E94730D81
:104B2000D6CF109290030E94C2151092A503109246
:104B3000DE0387E0E8E7F2E0DF011D928A95E9F7FE
:104B4000C6CF819FC00111248A559C4F0E94BE236D
:104B5000882321F28091DE0390E0019687709927E7
:104B60008093DE03B5CFA6E0B0E0E9EBF5E20C946C
:104B7000B6300E941F1E8C0180918802909189029C
:104B80008017910781F019821A820E941F1E682FD8
:104B900049815A81792F80E090E00E942525109369
:104BA0008902009388022696E4E00C94D2301F928A
:104BB0001FB61F9211248F939F93AF93BF93809141
:104BC0008A03811113C080918B0390918C03A09173
:104BD0008D03B0918E034196A11DB11D80938B036F
:104BE00090938C03A0938D03B0938E03BF91AF91EC
:104BF0009F918F911F901FBE1F901895CDB7DEB764
:104C00002F970FB6F894DEBF0FBECDBF85B7806873
:104C100085BF85B7806885BF84B7877F84BF0FB69F
:104C2000F894A8958091600088618093600010924C
:104C300060000FBE80E890E00FB6F89480936100AA
:104C4000909361000FBE81E08093A30188E09BE018
:104C500090933D0280933C020E9435060E945406C8
:104C60008091E20084608093E20078948091A403B4
:104C70008823A1F01091E9001F709091EC00892F1A
:104C8000817090FD80E8182B1092E9008091E80077
:104C900083FD0E94CE151F701093E90082E084BD51
:104CA00093E095BD9AEF97BD80936E001092EF024E
:104CB0001092F0021092F1021092F2028091D8004C
:104CC00080618093D8002AE12A95F1F700C0809195
:104CD000D900182F117080FD04C00E943506109273
:104CE000A4031093860310938703109302011111FC
:104CF0000E94322F809102018091020195E0811182
:104D000090E09093FE0285E0891B8093FD0203E012
:104D100012E058E0E52E52E0F52ED8018D918D017C
:104D20008F3F11F00E94390BE016F106B1F708E051
:104D300012E0F80181918F018F3F11F00E94390B31
:104D4000F2E00E301F07A9F78AE0E4E0F3E0DF01AC
:104D5000282F1D922A95E9F7E3EFF2E0DF011D927B
:104D60008A95E9F790E080E00E949231853E9E4F5F
:104D700009F45EC065EE7EEF90E080E00E94C631EF
:104D800060E082E090E00E94A83181E08093FF0221
:104D900061E083E090E00E94A83160E074E184E08B
:104DA00090E00E94C63160E086E090E00E94A83169
:104DB00060E087E090E00E94A83140E050E0BA0156
:104DC00088E090E00E94BA3160E083E290E00E94C7
:104DD000A83160E08CE090E00E94A83160E08DE0B6
:104DE00090E00E94A83119821A821B821C821D82C7
:104DF0001E821F82188648E050E067E170E0CE0115
:104E000001960E94983140E050E0BA018FE190E0B5
:104E10000E94BA3140E050E0BA018FE090E00E9479
:104E2000BA3140E050E0BA0183E190E00E94BA312B
:104E300082E090E00E94843180930E0384E090E051
:104E40000E949231909302038093010383E090E0EB
:104E50000E9484310E94400E83E080934B0380E2E5
:104E60008093DF030E94D02D6BE070E087E294E036
:104E70000E94E219882359F180914B0365E070E0AC
:104E800081FD1CC182E294E00E94E2198823F9F0BE
:104E90006DE070E080E194E00E94E2198823B9F0AF
:104EA0000E947B07605A75418F4F9F4F60935C0350
:104EB00070935D0380935E0390935F030E94A6143A
:104EC00081E0809361038093600310924C03809192
:104ED000030381117EC088E090E00E948C314B0179
:104EE0005C0183E290E00E948431282F30E040E0B2
:104EF00050E060E070E080E090E000E20E9420314D
:104F0000282939294A295B292093540330935503D2
:104F1000409356035093570360935803709359037B
:104F200080935A0390935B032C7F09F042C025E0E5
:104F300020935403109255032FEF20935603209390
:104F400057031092580325E030E04FEF5FEF60E029
:104F50000E94321A88E090E00E948C316B017C0143
:104F600083E290E00E948431282F30E040E050E05E
:104F700060E070E080E090E00E942031B22FA32F2B
:104F8000F42FE52F5B0197018601BC29A12BFE2997
:104F9000E32BB0935403A0935503F0935603E0938F
:104FA000570360935803B092590380935A03909328
:104FB0005B030E94F90A0E94BC078091540380FFA2
:104FC00005C060E0869586950E94931B81E08093E2
:104FD000030380918603811102C00E94352F83EF65
:104FE00090E290939F0180939E018EE090E09093D9
:104FF0009A01809399018EE290E090939D018093B5
:105000009C0183E091E090938903809388038091D1
:10501000A40310E400E142E1F42E853009F485C0D8
:105020000E942B1E2FE0E22E23E0F22E34E0C32E4E
:1050300033E0D32ED601F70191918D9133E0E93120
:10504000F30709F47EC09817B9F38090860310E047
:10505000D6010D916D01F70191907F01901631F10C
:105060009026B12CAA24A394892D8A21B9F08820F6
:10507000A9F0B9821A830E941F1E9C838B83F1E0E2
:10508000FD8391E0802F8A2109F490E09E8349817D
:105090005A816B817C818D810E942525B394AA0C55
:1050A00026E0B212E1CFF701319700831F5F1A307B
:1050B00079F60E94500B3324339448C08DE194E07C
:1050C000E3CE8091A403843029F10E94EF1910925D
:1050D0008A03E8E1F0E00FB6F894A895E093600049
:1050E0000FBE1093600083B7817F846083BF83B756
:1050F000816083BF7894889583B78E7F83BF0FB616
:10510000F894A89580916000886180936000109267
:1051100060000FBE0E942B1EE4E0F3E0819181113C
:10512000D0C423E0EE30F207C9F78091A4038530A4
:1051300009F4C7CF109290030E94C2150E948A07FB
:105140006FCF981382CF0E94B325312C80916103D9
:105150008823D1F180914D0390914E030E94101E3F
:10516000C29790F00E941F1E90934E0380934D03B0
:1051700060E080E00E94CB0A0E940514F82E32E025
:10518000831388C00E94EF198091E0039091E1039E
:10519000892B09F0B5C3809160038823A9F00E9490
:1051A0007B0700915C0310915D0320915E033091B9
:1051B0005F03601B710B820B930B6F3F7F4F8F4F11
:1051C0009F4710F40E94EF1931100E940A1A0E94A2
:1051D0008A0790914F03891721F080934F030E9413
:1051E0007B0780918603882309F411CF80915303B4
:1051F000882309F40CCF87E08D87909150039A3073
:1052000008F005CF1A8619868A8712E01B871C864C
:1052100063E070E0CE010A960E949B078987109395
:1052200080011092930110E000E030E020E044E0C3
:1052300050E0BE01675F7F4F83E00E94C71B882359
:1052400009F4E5CE30E020E042E050E061E573E0B3
:1052500084E00E94C71B882309F4D9CE30E020E007
:1052600041E050E0BE01635F7F4F85E00E94C71BB5
:10527000882309F4CCCE30E020E050E040E070E03C
:1052800060E086E00E94C71B882309F4C0CE10921C
:105290005303BDCE0E940A1A84E0F81270C1009137
:1052A0001B03023858F010921B030E94A6140E94A0
:1052B000A6140E9495200E946D1466CF8091190358
:1052C00090911A030E94101E099708F45DCF0E9466
:1052D0001F1E90931A0380931903073308F0B4C07C
:1052E0006AEA71E085E00E94041960EB71E087E0F2
:1052F0000E940419802F877066EB71E0853010F4EE
:1053000069EB71E08CE00E9404190031A0F1602F7C
:1053100070E090E080E00E94F33220E030E040E76F
:1053200051E40E94DC3120E030E040EA50E40E9489
:105330007F3320E030E0A9010E94DD310E94BB32C2
:105340004B01AB01445C5F4F69E681E00E94691547
:10535000740194E1E90EF11CA7016EE682E00E945F
:105360006915A40169E683E00E946915A70164E755
:1053700084E00E946915043208F458C0602F70E080
:1053800090E080E00E94F33220E030E04CE052E414
:105390000E94DC3125E535E545ED50E40E947F3380
:1053A00020E030E0A9010E94DD310E94BB32072ECF
:1053B000000C880B990B0E94F33220E030E048EC9F
:1053C00052E40E9449326B017C01AC019B010E94B6
:1053D0007F33A70196010E947F334B015C0140E2BD
:1053E00068E780E00E94AE10A5019401C701B601F4
:1053F0000E947F3320E030E048EC52E40E947F338B
:105400000E94BB326536710514F064E670E02AE153
:10541000269FC001279F900D112464E670E00E9432
:10542000FB307B0110E01E151F0434F080911B033C
:105430008F5F80931B03A8CE41E06BE783E0810F71
:105440000E9498081F5FEFCF19EC100F193108F078
:1054500049C0110F812F65E00E94EF30180FC12C59
:105460001F3020F092EFC92EC10E1EE00E94A6143C
:10547000EC2CF12CEE0CFF1CD701A25FBD4F7D017F
:105480000C2D000F000FD12C83E0B82ED11671F235
:105490008C2D8D0D833160F4F701608171818D2D2C
:1054A0000E940419D394F2E0EF0EF11C0C5FEECFD2
:1054B0006B2D0E94EF3064EA71E0992381F384EB55
:1054C000800F80930E0185EB800F80930F0186EB98
:1054D000800F8093100187EB800F809311016DE0A6
:1054E00071E0DDCF10EB100F21F01A3011F01E31FA
:1054F00011F40E94A61460E070E0CB011A3098F11C
:105500001E3158F00E94A61462E9600F653008F061
:1055100064E080E30E94D51289CF0E94BA126B0129
:105520007C01612F70E090E080E00E94F33220E087
:1055300030E040E251E40E94DC3120E030E040EA1B
:1055400050E40E947F3320E030E0A9010E94DD3169
:105550000E94BB3204E610E0061B170B1016110662
:105560002CF0C701B6010E94161160CF0E94BA123A
:10557000C622D722E822F9220A501109EFCF25E0EE
:10558000F21252C080911C0390911D030E94101EC4
:10559000C89708F4F9CD0E941F1E90931D038093B5
:1055A0001C03EE24E39403E020E830E040E260E0F6
:1055B00080E00E94A90FE6E02E2EF4E1AF2EB12C80
:1055C000AAE06A2E712CB0E88B2E912C1CE1412EA2
:1055D000512C0E9466137C010E9466136C010E948C
:1055E0006613B5010E94FB308C010A501109C601F7
:1055F000B3010E94FB3023E0280FC701B5010E94D0
:10560000FB3047E0480FC601B4010E94FB30382F41
:10561000C701B2010E94FB30632F8C5F0E94BB0E5A
:105620002A942110D6CFB0CD31E0F31214C00E94DD
:10563000E0137BE0C72EE82E06E910E020E04EE103
:1056400053E062E171E08FE193E00E948213809168
:105650001E038430D0F560E870E082E394E00E949D
:10566000BE078091290390912A030E94101E8997FA
:1056700008F48ACD0E941F1E90932A038093290369
:10568000E090580168E471E08E2D0E9403128F3F74
:1056900039F0893029F068E471E08E2D0E9498126B
:1056A0000091470167E371E0802F0E9403128F3F52
:1056B00039F0893029F067E371E0802F0E94981259
:1056C000F11085C00E948D1F5FCDECEFE80FE73031
:1056D00040F6F0E0E15FFB4C0C940F3105E010E088
:1056E00023E048E16BE081E00E94BB0E04E010E0A3
:1056F00023E04EE063E182E00E94BB0E24E047E03D
:1057000066E189E00E94BB0EACCF04E010E027E028
:1057100044E169E186E00E94BB0E07E010E028E06A
:1057200040E268E080E0EECF0DEF1FEF24E04BE1B8
:1057300067E083E00E94BB0E0CEF1FEF24E043E123
:1057400067E18DE0DFCF883079F010E000E0C8013C
:105750000E948B0EB80180950E94A70A0F5F1F4F11
:1057600000381105A1F77DCF01E010E0003879F095
:1057700045E56FEF7FEFC8010E94960E4AEA61E0AF
:1057800070E08FE790E0801B910B0E94960E0F5FF8
:105790001F4F0138110551F764CF10E064E6C62EA3
:1057A000D12C0E946613B6010E94FB30499734F455
:1057B00021E040E2612F80E00E94A7101F5F1032BD
:1057C00081F74FCF60E080E00E94D5124ACF81E0A0
:1057D000F81204C088E08093360174CF0E94BE1195
:1057E00010912503153008F068C080912303909133
:1057F00024030E94101E8997D0F00E941F1E9093D0
:105800002403809323034BE067E670E08FE090E091
:105810000E94DA0860E08BE00E942910111139C063
:1058200061E08BE00E9429101F5F10932503109107
:105830002803183009F45FC0809126039091270354
:105840000E94101E459748F00E941F1E9093270348
:10585000809326031F5F1093280300E02BE045E1AF
:105860006EE287E00E94CE10809128038430C8F554
:10587000809135010E948415009128030F5FEE246A
:10588000E39428E030E042E160E389E00E94A90F60
:105890007BCC6BE080E00E94CB0AA12FA150BB0B18
:1058A000CD019695982F88279795879560E870E0A9
:1058B0008E549B4F0E94BE07B7CF153009F0B7CF6B
:1058C00020E04E2D64E271E088E491E00E94101225
:1058D00021E0402F64E171E087E391E00E94101223
:1058E000A6CF809134010E9484158091280308E09E
:1058F000081BE12CC6CF809134010E94841544CC52
:1059000080916103882309F446CC80914C03811176
:1059100042CC0E940A1A2091E0033091E103211544
:10592000310509F438CC80E041E050E0082F10E068
:105930007A01082E02C0EE0CFF1C0A94E2F7B701B0
:1059400062237323672B11F48F5FF0CF90914B0389
:1059500090FF9EC0880F880F880F80935B01109284
:105960005E01895F80935C0183E080935F0124E6A0
:1059700030E047E050E069E571E088E70E94042EDE
:10598000892B09F008CCA80125E0440F551F2A9562
:10599000E1F780914B0380FF8DC0EBE2F3E080E202
:1059A000DF011D928A95E9F7E8E3F2E0FF87EE87D1
:1059B00004E312E08CE3682E82E0782E97E0A92EB3
:1059C00099249394AE85BF852D91BF87AE87F8014A
:1059D00041908F01440E552E511CC2018E519C4F97
:1059E0002C01E22FF0E0E55DFC4F30E020E02A2CB6
:1059F000221AB92C022E01C0BB0C0A94EAF76201EC
:105A000090E0D6018D916D018B21622D691B67702D
:105A1000862E062E000C770BB82F01C0BB0F8A9480
:105A2000EAF78B2E7195619571096770772701C030
:105A300086956A95EAF7882A8081882A80829F5F06
:105A40009830F9F62F5F3F4F31962830310579F6BF
:105A5000EE85FF856E167F0609F0B4CF04E610E0F0
:105A600020E230E04BE253E060E488E70E948E2EB3
:105A7000892B09F090CBE094F0948091E003909111
:105A8000E103E822F922F092E103E092E00383CB04
:105A90008295880F807680935B01980136952795D3
:105AA0003695279520935E01815E80935C0120935B
:105AB0005F015DCF4E515C4F04E610E020E230E024
:105AC000D3CF80919A03882309F42FCB09BDF9BC69
:105AD00009B400FEFDCF8091D8008F7D8093D8005F
